:020000040800F2
:100000002006002001010008132600086D1B0008CF
:1000100011260008AD0B000865290008000000004B
:10002000000000000000000000000000172600088B
:10003000AF0B000800000000152600081926000874
:100040001B0100081B0100081B0100081B01000820
:100050001B0100081B0100081B0100081B01000810
:100060001B0100081B0100081B0100081B01000800
:100070001B0100081B0100081B0100081B010008F0
:100080001B0100081B0100081B0100081B010008E0
:100090001B0100081B0100081B0100081B010008D0
:1000A0001B0100087D2600081B0100081B01000839
:1000B0008926000895260008000000001B010008A2
:1000C0001B01000800000000000000001B010008E8
:1000D000000000001B0100081B01000800000000D8
:1000E0001B0100081B0100081B010008DFF80CD0F1
:1000F00000F04CFC0048004709440008200600209E
:100100000648804706480047FEE7FEE7FEE7FEE7B1
:10011000FEE7FEE7FEE7FEE7FEE7FEE77B260008D8
:10012000ED0000082DE9F0410024061B254671F181
:10013000000605DA01240027D0EB070067EB010178
:10014000161E73F1000605DA0027D2EB070201251F
:1001500067EB030300F01DFB86460E4617469C46E0
:10016000AC4204D00025D0EB050E65EB010624B1AE
:100170000020D2EB000760EB030C704631463A4694
:100180006346BDE8F081202A04DB203A21FA02F020
:100190000021704721FA02F3D040C2F120029140C1
:1001A000084319467047D2B201E000F8012B491EFE
:1001B000FBD270470022F6E710B513460A46044604
:1001C0001946FFF7F0FF204610BD30B50446002069
:1001D000034600E05B1C934203D2E05CCD5C401B15
:1001E000F8D030BDF0B480EA0102D40F4200B2EB87
:1001F000410F02D20246084611464A0042D0C30DC2
:10020000DDB2C1F3C752AD1A202D35DAC1F31601A4
:1002100041F4000204B15242C5F1200602FA06F18F
:100220002A411044B3EBD05F23D0C4B1012DA0EB21
:10023000C35009DCF0BC4FF0004202EAC352DBB20B
:1002400000F5000000F000BB400000F1807000EB02
:10025000C350A0F1807040EAD170490009E049081C
:1002600041EAC071A0EBC35000F50000400800EB6C
:10027000C350F0BC00F0DFBA6142012202EB410141
:10028000001BF6E7F0BC704781F00041AAE780F060
:100290000040A7E780EA010210B502F000434000E9
:1002A00022D04A001FD0010E01EB1261C0F35600AC
:1002B000C2F3560240F4000042F40002A0FB022008
:1002C00000047F39140400D0401C50EA124001D4CD
:1002D0004000491EC2B20C0604EBD010401C40087E
:1002E000802A02D003E0002010BD20F00100002988
:1002F00000DA0020184310BD30B480EA010202F099
:10030000004530F0004221F0004013D090B1C30D01
:10031000D40DC2F31601C0F31600E41A41F4000133
:1003200040F400027D34914201D3641C00E0490096
:10033000002C02DA30BC002070474FF4000000238C
:10034000914201D3891A034340084FEA4101F7D192
:1003500051B1914202D14FF0004105E002D24FF07D
:10036000010101E06FF0010103EBC450284430BCEF
:1003700000F061BA420005D0C0F3C7525242914228
:1003800001DC0020704700EBC15070472DE9FE4FA3
:10039000804681EA0300C00F0C46009021F0004126
:1003A00023F00045B8EB0200A94105D240462146A2
:1003B00090461C460B46024623F00040104347D0AF
:1003C000270DC7F30A00C3F30A510290401A0190A7
:1003D00040286BDAC3F3130040F4801B0098924668
:1003E00020B10023D2EB030A63EB0B0B01985946B3
:1003F000C0F14002504600F0FDF906460D46504659
:100400005946019A00F005FA10EB080061410024FA
:1004100087EA115284EAE7731A4340D0009A62B324
:10042000019A012A4FEA075215DC001B61EB020119
:100430004FF0004202EA0752CDE90042001C41F5AC
:10044000801132462B4600F03CFA03B0BDE8F08F35
:1004500040462146F9E7001B61EB0201001C41F513
:10046000801300185B412018A2F5001747EB030129
:1004700040EAD570B6196D4111E06D084FEA3606B5
:1004800045EAC0754FEA0752001B61EB0201001CF0
:1004900041F5801149084FEA3000001951413246B8
:1004A0002B4603B0BDE8F04F00F0FCB900980122E4
:1004B00040000023D0EB020263EBE073009821467A
:1004C0004FEAE074B8EB000061EB0401E9E783F068
:1004D00000435BE781F0004158E72DE9FE4F81EAD8
:1004E000030404F0004421F0004100944FF0000B9D
:1004F00023F0004350EA01045ED052EA03045BD0CB
:10050000C3F30A54C1F30A552C44A4F2F334019402
:10051000A0FB0254C1F3130141F48011C3F3130390
:1005200043F4801301FB024400FB034E840A970A44
:1005300044EA815447EA8357A4FB076802958D0A71
:1005400005FB07854FEA932C04FB0C542705029DFD
:100550004FEA065847EA1637B5EB08056EEB070C6D
:10056000870E920E47EA811742EA8312A7FB020127
:10057000B6EB0B0164EB00042B0D43EA0C335E1861
:1005800044EB1C50DA465146E7FB0201C5F3130465
:100590004FEA0B3343EA14534FEA0432019C43EA17
:1005A0000603A4F10C040294009CCDE900B400F011
:1005B00088F903B0BDE8F08F00200146F9E72DE986
:1005C000F04D81EA030404F0004B21F0004514468D
:1005D0004FF0000A23F0004150EA050220D054EA0F
:1005E00001021DD0C5F30A570246C5F31303C1F338
:1005F0001300C1F30A5640F4801543F48013A7EBAF
:100600000608101BD64608F2FD3873EB050002D32E
:1006100008F1010801E092185B41B8F1000F03DA1C
:1006200000200146BDE8F08D00204FF48011064601
:1006300084460EE0171B73EB050705D3121B63EB13
:10064000050306434CEA010C49084FEA30009218B2
:100650005B4150EA0107EDD152EA030012D082EA71
:10066000040083EA0501084305D0101BAB4106D204
:100670000122002306E000224FF0004302E06FF069
:10068000010253101AEB06004CEB085110EB0A0064
:1006900041EB0B01BDE8F04D00F004B9C10F80EA59
:1006A000E0700844CA079623002100F0CDB89623D5
:1006B0000022114600F0C8B80EB5C10F80EAE07004
:1006C0000844CA07002140F233438DE80E000A4671
:1006D0000B4600F0F6F803B000BD00F0004220F039
:1006E0000040C10DC0F3160040F400007F2901DA7C
:1006F00000207047962903DCC1F19601C84001E053
:1007000096398840002AF4D04042704720F00040DB
:10071000C10DC0F3160040F400007F2901DA00206B
:100720007047962903DCC1F19601C840704796399D
:100730008840704700F0004230F000400AD0C10D00
:1007400001F56071C0F3160042EA0151C20840078A
:100750001143704700200146704701F0004330B458
:1007600021F0004150EA010206D00A0DA2F56072A4
:10077000C1F31301002A02DC30BC00207047440F93
:1007800044EAC104C100E01830BC00EBC25000F0E4
:1007900052B82DE9F05F0546002092469B468846F8
:1007A0000646814640241BE02846414647462246ED
:1007B000FFF7E9FC53465A46C01A914110D311463F
:1007C0001846224600F016F82D1A67EB01084F462E
:1007D00022460120002100F00DF817EB00094E41E0
:1007E000201EA4F10104DFDC484631462A46434678
:1007F000BDE8F09F202A04DB203A00FA02F1002035
:1008000070479140C2F1200320FA03F3194390404E
:100810007047202A06DBCB17203A41FA02F043EA60
:10082000E07306E041FA02F3D040C2F120029140A9
:100830000843194670470029A8BF7047401C49006B
:1008400008BF20F00100704710B4B0FA80FC00FA35
:100850000CF050EA010404BF10BC704749B1CCF160
:10086000200421FA04F411FA0CF118BF01212143EC
:100870000843A3EB0C01CB1D4FEA00614FEA1020A7
:1008800042BF002010BC704700EBC3501044002949
:10089000A4BF10BC7047401C490008BF20F00100F5
:1008A00010BC704710B5141E73F1000408DA401C28
:1008B00041F1000192185B411A4301D120F001007F
:1008C00010BD2DE9F04D92469B4611B1B1FA81F26F
:1008D00002E0B0FA80F220329046FFF78BFF044628
:1008E0000F4640EA0A0041EA0B0153465A460843C4
:1008F00013D0114653EA010019D0C8F14002504606
:10090000FFF741FC05460E46504659464246FFF762
:1009100071FF084305D0012004E020463946BDE8B8
:10092000F08D0020054346EAE0762C4337430A98D1
:100930006305E40AA0EB08000022FD0A44EA4754DC
:100940000A3002D500200146E9E701051019694186
:10095000DDE9084500196941BDE8F04DA2E770B531
:1009600021F0004303430CD0C1F30A550024D5EB1A
:10097000040564EB0403D617AD1AB34102DB002073
:10098000014670BD201841EB025170BD064C074D69
:1009900006E0E06840F0010394E80700984710344F
:1009A000AC42F6D3FFF7A6FB88610008A8610008F7
:1009B0002DE9F04D00231A461B1A8A4103DB002063
:1009C0000146BDE8F08DC1F30A52C1F3130141F4B1
:1009D00080154FF0000BD10702D100186D41521E57
:1009E0000027044640F2FF11384601EB620A3E46FA
:1009F0008046024600204FF48011FFF7C4FBC21965
:100A00007141BB1846EB0100B4EB030C75EB000C15
:100A100004D3E41A65EB000517460E46241908F1C5
:100A200001006D4180463428E3DDF91946EB0600EC
:100A3000091BA84103D24FF0FF32134601E0002208
:100A400013461BEB070046EB0A51BDE8F04DFFF7DC
:100A500029BF00002DE9F04701F07AFB4F4C04F16B
:100A60000E022070911E881E01F040FB04F1080266
:100A70006070911E881E01F052FBA070B4F90A004C
:100A8000FFF70CFE6064B4F90C00FFF707FEA064EA
:100A9000B4F90E00FFF702FEE064B4F90400FFF7BA
:100AA000FDFD2065B4F90600FFF7F8FD6065B4F9B7
:100AB0000800FFF7F3FDA065384A5C3202F110012F
:100AC000A1F1080003F0ECFC0028F5D1206D4FF0F7
:100AD0008E45334E4FF06639A84208DAFFF72AFEFA
:100AE0004A463346FFF76BFDFFF737FE20652D4F73
:100AF000DFF8B4800146A8420BDD3846FFF7C4FB9F
:100B0000FFF718FE4A464346FFF759FDFFF725FE5B
:100B10002065606DA84208DAFFF70CFE4A463346AE
:100B2000FFF74DFDFFF719FE60650146A8420BDD9A
:100B30003846FFF7A9FBFFF7FDFD4A464346FFF79E
:100B40003EFDFFF70AFE6065A06DA84208DAFFF7D8
:100B5000F1FD4A463346FFF732FDFFF7FEFDA06583
:100B60000146A8420BDD3846FFF78EFBFFF7E2FD9A
:100B70004A464346FFF723FDFFF7EFFDA065216DD1
:100B8000606E01F021F9616DE06E01F0A3F9D4E926
:100B90001610BDE8F04701F023BA00001000002055
:100BA000666630C000FF7F4766663040FEE77047EC
:100BB00072B6FEE770B5044600F000F90546601C09
:100BC00002D004480078044400F0F8F8401BA0422A
:100BD000FAD370BD000000202DE9F84FDFF89C919A
:100BE000002409F1040A0AF1040B23460F270BF134
:100BF000040EBBE00125A5402A40AA4276D1DFF8C9
:100C000080C14E68A6EB0C0866452BD00DDC032E88
:100C100034D005DC36B3012E19D0022E2FD11BE0C3
:100C2000112E16D0122E2AD119E0B8F5881F19D02E
:100C300006DCB8F5803F15D0B8F5801F1FD111E054
:100C4000B8F5001F0ED0B8F5041F18D10AE0CB6824
:100C500015E0CB681B1D12E0CB6808330FE0CB68B2
:100C60000C330CE08B682BB1012B4FF0080303D041
:100C7000456104E0042302E0056100E00023FF2A4F
:100C800001D8064601E000F104064FEA840501D9C7
:100C9000A5F12005D6F8008007FA05FC28EA0C0823
:100CA00003FA05F548EA0508C6F800804D68ED002E
:100CB0005BD5344DAE6946F00106AE61AD6924F0F6
:100CC000030605F0010500952F4D06EB050CDCF839
:100CD0000850A607360F07FA06F825EA0805DFF8D8
:100CE000AC80404503D14FF0000810E03DE0DFF854
:100CF000A080404502D14FF0010808E0DFF8948061
:100D0000404502D14FF0020801E04FF0030808FA15
:100D100006F848EA0508CCF808804D68D9F8006064
:100D2000ED034D4601D5164300E096432E604D6815
:100D3000DAF80060AD03554601D5164300E096434E
:100D40002E604D68DBF80060ED025D4601D516436C
:100D500000E096432E604D68DEF80060AD027546F7
:100D600001D5164300E096432E60641C0A6832FAEF
:100D700004F57FF43FAFBDE8F88F000000040140A8
:100D80000000111000100240000001400008014066
:100D9000000C0140001001408068084000D0012094
:100DA0007047C26821EA02030A4043EA0241016136
:100DB00070470AB1016170470904FBE70148806888
:100DC000704700000000002002488168027811444A
:100DD0008160704700000020074810B5016841F0AD
:100DE00010010160032000F075F80F2000F006F8F4
:100DF00000F024F8002010BD0020024070B50D4D19
:100E000004464FF47A712878B1FBF0F00A4909687A
:100E1000B1FBF0F000F0ECFA48B9102C07D2002238
:100E20002146501E00F036F800206C6070BD012095
:100E300070BD0000000000200C0000200C4808B528
:100E4000816941F001018161816901F00101009135
:100E5000C16941F08051C161C06900F080500090CB
:100E60000448416821F0E06141F00071416008BD33
:100E70000010024000000140002809DB00F01F02C2
:100E8000012191404009800000F1E020C0F80011EC
:100E900070470000F0B40E4B1B680C46C3F30223EE
:100EA000C3F10705042D00D90425191D072901D216
:100EB000002300E0DB1E012606FA05F1491E214051
:100EC00099409E40761E16403143F0BC01F070BD43
:100ED0000CED00E0064900F0070208684FF6FF033A
:100EE000184040EA0220034A10430860704700009F
:100EF0000CED00E00000FA052DE9F0470F46050073
:100F000061D0434E306800F00700B84209D2306823
:100F100020F0070038433060306800F00700B84226
:100F200051D128683B4C810712D5400703D5606832
:100F300040F4E06060602878000703D5606840F402
:100F4000605060606068A96820F0F000084360604D
:100F50002878C00728D06868012810D021680228A6
:100F600010D0890700292EDA616821F003010143BE
:100F70006160FFF723FF804641F288390DE0216868
:100F80008903EFE78901EDE7FFF718FFA0EB080100
:100F9000494502D90320BDE8F0876068696800F020
:100FA0000C00B0EB810FEFD1306800F00700B842C1
:100FB0000BD9306820F0070038433060306800F00B
:100FC0000700B84201D00120E5E72878400705D5A1
:100FD0006068E96820F4E0600843606028780007F2
:100FE00006D56068296920F4605040EAC10060605D
:100FF00000F038F86168084AC1F30311515CC84039
:101000000649086006480068FFF7F8FE0020C2E7BE
:101010000020024000100240E45300080C000020B1
:10102000040000200448054900684968044AC1F3E7
:101030000221515CC84070470C00002000100240A3
:10104000F45300080448054900684968044AC1F39C
:10105000C221515CC84070470C00002000100240C3
:10106000F453000812A185B00FC98DE80F0014A039
:10107000144A006804905168134801F00C03042BD3
:1010800010D0082B0ED1C1F38343C9031DF8030010
:101090000AD5516804AAC1F34041515C0A4A504341
:1010A000B0FBF1F005B0704708494843FAE700008B
:1010B00002030405060708090A0B0C0D0E0F101099
:1010C000010200000010024000127A0000093D00F9
:1010D0002DE9F84F040070D02078C04DC00749D0EA
:1010E0006868C0F38100012807D06868C0F38100F8
:1010F000022809D16868C00306D52868800339D55D
:1011000060680028E7D035E06068B0F5803F0BD01C
:1011100010B1B0F5A02F11D0286820F480302860DD
:10112000286820F4802002E0286840F4803028609D
:10113000606890B1FFF742FE06460AE0286840F476
:1011400080202860F0E700BFFFF738FE801B64288E
:1011500073D828688003F7D50CE0FFF72FFE06460A
:1011600005E000BFFFF72AFE801B6428F0D828683E
:101170008003F7D420789A4E80074FF001094FF092
:10118000000839D5686810F00C0F07D06868C0F304
:101190008100022809D16868C00306D42868800746
:1011A00014D52069012808D110E02069B0B1C6F833
:1011B0000090FFF703FE074605E00AE1FFF7FEFD9A
:1011C000C01B0228C4D828688007F7D52868616941
:1011D00020F0F80040EAC10028600DE0C6F8008069
:1011E000FFF7ECFD074604E0FFF7E8FDC01B02280F
:1011F00023D828688007F7D4207800072CD57948B1
:10120000A169D9B1C0F80090FFF7D8FD074604E006
:10121000FFF7D4FDC01B02280FD8686A8007F7D5F6
:1012200071484FF4FA510068B0FBF1F0009000BF34
:101230000098411E0091FAD20EE080E0C0F80080D4
:10124000FFF7BCFD074604E0FFF7B8FDC01B02280E
:1012500075D8686A8007F7D42078400760D5E869B8
:101260000027C00008D4E86940F08050E861E869D0
:10127000012700F0805000905C480168C90513D434
:101280000168834641F480710160FFF797FD824653
:1012900006E000BFFFF792FDA0EB0A0064284ED8DD
:1012A000DBF80000C005F5D5E06801280AD008B1D8
:1012B000052813D0286A20F001002862286A20F04F
:1012C000040002E0286A40F001002862E06841F270
:1012D000883B98B1FFF772FD82460BE0286A40F028
:1012E00004002862EEE700BFFFF768FDA0EB0A01EB
:1012F00059455AD8286A8007F6D50CE0FFF75EFDFD
:10130000824605E0FFF75AFDA0EB0A0159454CD88B
:10131000286A8007F6D41FB1E86920F08050E861A0
:10132000E06988B36968C1F38101022944D00228C9
:10133000C6F8608004D0FFF741FD044638E034E091
:10134000FFF73CFD074604E0FFF738FDC01B02280D
:101350002BD828688001F7D4206AB0F5803F05D1EA
:101360006868A16820F4003008436860D4E9080187
:101370000843696821F4741108436860C6F86090F6
:10138000FFF71CFD044606E025E000BFFFF716FD51
:10139000001B022809D828688001F7D51BE000BF90
:1013A000FFF70CFD001B022802D90320BDE8F88FCF
:1013B00028688001F4D40EE00128F7D06868226A1A
:1013C00000F48031914204D1616A00F470108842C7
:1013D00001D00120EAE70020E8E700000010024009
:1013E00000004242800442420C0000200070004095
:1013F00010B5401EB0F1807F01D3012010BD4FF029
:10140000E02460610F21601701F0D2FA0020A06192
:1014100007202061002010BD7047704770B590F81C
:101420003C20012A23D0012480F83C40022280F88D
:101430003D2003685A689D6822F070060A683243AE
:101440005A600C4B02689A4205D0B2F1804F02D02C
:10145000094B9A4204D1496825F0800319439160F1
:1014600080F83D40002180F83C10084670BD022005
:1014700070BD0000002C01400004004010B50400C5
:1014800003D094F83D0010B107E0012010BD00200A
:1014900084F83C00204600F01FF8022084F83D004C
:1014A000211D206801F0FCF8012084F8460084F832
:1014B0003E0084F83F0084F8400084F8410084F83E
:1014C000420084F8430084F8440084F8450084F81E
:1014D0003D00002010BD000008B500680B4988429F
:1014E00012D10B48816941F4006181618069002259
:1014F00000F40060009011461920FFF7CBFCBDE816
:1015000008401920FFF7B8BC08BD0000002C0140BE
:101510000010024090F83D10012901D001207047D1
:10152000022180F83D100168CA6842F00102CA60D9
:1015300000680A49884205D0B0F1804F02D00849BE
:10154000884204D1816801F00701062903D00168AF
:1015500041F001010160002070470000002C0140B3
:101560000004004070B5044690F83C00012817D0F4
:10157000012584F83C50022084F83D0020688268F0
:1015800022F0770222F47F4282600868502830D02F
:101590000DDC20284DD005DC98B310283BD148E065
:1015A000022070BD302844D0402834D139E0602872
:1015B00028D0702806D0B0F5805F2CD0B0F5005F41
:1015C00029D10AE0CB68D1E90121206801F096F821
:1015D0002068816841F0770109E0CB68D1E90121F9
:1015E000206801F08BF82068816841F480418160B7
:1015F00011E0CA684968206801F034F95021206878
:1016000007E016E0CA684968206801F03CF96021EB
:10161000206801F07DF884F83D50002084F83C00FB
:1016200070BDCA684968206801F01CF94021206833
:10163000EFE7226801461046EBE72DE9F0410D4641
:10164000040003D094F83D0018B108E00120BDE883
:10165000F081002084F83C00204600F041F8022090
:1016600084F83D002068816844F20702914381605C
:10167000211D206801F014F8226890689169166AAB
:101680002B68AF69034340F20330814341EA0721ED
:10169000A868EF6908434FF6FC418843E96840EACF
:1016A0000720014328692F6A000140EA07300843F8
:1016B00069686D6926F0220646EA0515294393609C
:1016C0002268906154F8460B0162012004F81F095A
:1016D000E0752076E0762077A0750020B7E700005F
:1016E00000B585B00021009101910291039100683D
:1016F000114988421ED11148C16941F00201C161FE
:10170000C16901F002010491816941F00401816124
:101710008069694600F004000490C02000900848E9
:10172000FFF75AFA002211461D20FFF7B3FB1D20D8
:10173000FFF7A2FB05B000BD00040040001002400E
:1017400000080140704770B50446006801694FF019
:101750000005C943890715D4C168C943890711D455
:10176000E91E0161012020772068806980072046FA
:1017700002D0FFF7E7FF04E000F0BCF8204600F0DD
:101780007BF9257720680169C943490717D4C168E7
:10179000C943490713D46FF0040101610220207787
:1017A0002068806910F4407F204602D0FFF7CAFF0E
:1017B00004E000F09FF8204600F05EF925772068ED
:1017C0000169C943090716D4C168C943090712D47E
:1017D0006FF008010161042020772068C06980074C
:1017E000204602D0FFF7AEFF04E000F083F8204669
:1017F00000F042F9257720680169C943C90617D46A
:10180000C168C943C90613D46FF0100101610820F3
:1018100020772068C06910F4407F204602D0FFF78F
:1018200091FF04E000F066F8204600F025F92577E6
:1018300020680169C943C90708D1C168C943C907FC
:1018400004D1891E0161204600F018F92068016961
:10185000C943090609D4C168C943090605D46FF014
:10186000800101612046FFF7D7FD20680169C94367
:10187000490609D4C168C943490605D46FF040013F
:101880000161204600F008F920680169C943890612
:101890000BD4C168C943890607D46FF020010161E8
:1018A0002046BDE87040FFF7B8BD70BD00B585B0FB
:1018B000002100910191029103910068B0F1804FE5
:1018C00011D10A48816941F004018161806969464A
:1018D00000F0040004900820009002200190039082
:1018E0000348FFF779F905B000BD00000010024081
:1018F00000080140704770B5044690F83C000D4662
:1019000001280AD0012084F83C0042B1042A18D0F2
:10191000082A2AD00C2A4DD139E0022070BD206857
:1019200000F0FEFE2068816941F0080181612068B5
:10193000816921F004018161206881692A6911436C
:1019400011E0206800F014FF2068816941F4006113
:1019500081612068816921F48061816120688169E9
:101960002A6941EA0221816124E0206800F02CFF0D
:101970002068C16941F00801C1612068C16921F096
:101980000401C1612068C1692A69114311E020681E
:1019900000F046FF2068C16941F40061C161206820
:1019A000C16921F48061C1612068C1692A6941EA85
:1019B0000221C161002084F83C0070BD10B5040014
:1019C00003D094F83D0010B107E0012010BD0020C5
:1019D00084F83C00204600F01FF8022084F83D0007
:1019E000211D206800F05CFE012084F8460084F888
:1019F0003E0084F83F0084F8400084F8410084F8F9
:101A0000420084F8430084F8440084F8450084F8D8
:101A10003D00002010BD000000B585B00021009100
:101A20000191029103910068B0F1804F1ED11048DE
:101A3000C16941F00101C161C16901F00101049175
:101A4000816941F0040181618069694600F0040008
:101A50000490032000900748FFF7BEF800221146CB
:101A60001C20FFF717FA1C20FFF706FA05B000BD8F
:101A700000100240000801407047000004498842FD
:101A800004D14FF400510348FFF78BB970470000B1
:101A9000F400002000100140704770B5040004D02D
:101AA00094F83D00002510B106E0012070BD84F8D7
:101AB0003C50204600F022F8242084F83D002068A5
:101AC000C16821F40051C160204600F0EFFE20689B
:101AD000016921F4904101612068416921F02A01E6
:101AE00041612068C16841F40051C1602564202033
:101AF00084F83D0084F83E00002070BD30B585B00C
:101B000000240094019402940394006814498842CC
:101B100024D11448816941F480418161816901F4D3
:101B200080410491816941F00401816180690E4D19
:101B300000F0040004904FF4007000900220019027
:101B40000320039069462846FFF746F82815CDE99B
:101B50000004694628460294FFF73EF805B030BD00
:101B6000003801400010024000080140FEE700007C
:101B700070B5104D4FF40074002221462846FFF73F
:101B800018F900F019F80122160231462846FFF72D
:101B900010F900F011F8002231462846FFF709F944
:101BA00000F00AF821462846BDE870400122FFF700
:101BB00000B90000000C01400020401CC0B20A28FF
:101BC000FBD370470C4800B5816985B041F008012E
:101BD00081618069694600F0080004904FF440700C
:101BE000009003200390112001900448FEF7F4FFB9
:101BF00000F0AAF805B000BD00100240000C014042
:101C000070B50C4C012251022046FFF7D2F8FFF7C5
:101C1000D3FF0122150229462046FFF7CAF8FFF735
:101C2000CBFF002229462046FFF7C3F8BDE87040ED
:101C3000FFF7C2BF000C01402DE9F0470024164E0B
:101C4000804625464FF400794FF480776006040EF5
:101C5000012239463046FFF7ACF8FFF7ADFF4946A1
:101C60003046FFF799F808B1641CE4B20022394607
:101C70003046FFF79EF8FFF79FFF6D1CEDB2082D71
:101C8000E4D3B8F1000F04D0FFF772FF2046BDE89F
:101C9000F087FFF7B5FFF9E7000C01402DE9F041AF
:101CA000174E054600244FF480774FF4007828063D
:101CB00001D5012200E0002241463046FFF779F8C5
:101CC000FFF77AFF012239463046FFF772F8FFF737
:101CD00073FF002239463046FFF76BF8072C04D11A
:101CE000012241463046FFF764F86806050EFFF70B
:101CF00063FF641CE4B2082CD9D3BDE8F081000076
:101D0000000C014070B501220E4D540221462846B8
:101D1000FFF74FF80122160231462846FFF749F82F
:101D2000FFF74AFF002221462846FFF742F8FFF757
:101D300043FF002231462846FFF73BF8BDE87040DC
:101D4000FFF73ABF000C014070B50B4D4FF4007423
:101D5000002221462846FFF72CF8012211022846CE
:101D6000FFF727F8FFF728FF21462846BDE8704017
:101D70000122FFF71EB80000000C014070B50122DF
:101D8000104D540221462846FFF713F8FFF714FFC1
:101D90000122160231462846FFF70BF8FFF70CFF29
:101DA00021462846FEF7F8FF08B1012400E0002490
:101DB000002231462846FEF7FCFFFFF7FDFE2046D5
:101DC00070BD0000000C01402DE9F34F404C83B082
:101DD0000846216A0091FEF757FAE1698846FEF746
:101DE00059FAA16EFEF7FEF904F174058346D5E9B0
:101DF000017949463846FEF7F5F94146FEF74AFAB9
:101E0000064628682169FEF7EDF93146FEF73CFAEF
:101E1000EE68824641463046FEF73CFA394601906C
:101E2000FEF735FA804649460198FEF730FA8146BA
:101E300030466169FEF7D6F901905046A169FEF778
:101E4000D1F9064631465046FEF756FA0746314666
:101E50004846FEF751FA064659460398FEF714FA2B
:101E60003946FEF717FA5946FEF7BCF90146A06657
:101E70000398FEF709FA3146FEF70CFA0099FEF7CF
:101E8000B1F9206251463846FEF704FA5146FEF792
:101E9000FEF90446286041463846FEF7FBF9414604
:101EA000FEF7F5F90746686021463046FEF7F2F97D
:101EB0004946FEF7ECF9A86039463046FEF7EAF9E4
:101EC0000199FEF7E4F9E86005B0BDE8F08F000085
:101ED000100000202DE9F34F404C83B00846E16A22
:101EE0000091FEF7D1F9E1698846FEF7D3F9216F39
:101EF000FEF778F904F184058346D5E9017949466E
:101F00003846FEF76FF94146FEF7C4F906462868E1
:101F10002169FEF767F93146FEF7B6F9EE688246A9
:101F200041463046FEF7B6F939460190FEF7AFF963
:101F3000804649460198FEF7AAF981463046616914
:101F4000FEF750F901905046A169FEF74BF906469D
:101F500031465046FEF7D0F9074631464846FEF76F
:101F6000CBF9064659460398FEF78EF93946FEF737
:101F700091F95946FEF736F9014620670398FEF7B6
:101F800083F93146FEF786F90099FEF72BF9E062F6
:101F900051463846FEF77EF95146FEF778F9044679
:101FA000286041463846FEF775F94146FEF76FF95D
:101FB0000746686021463046FEF76CF94946FEF751
:101FC00066F9A86039463046FEF764F90199FEF7D4
:101FD0005EF9E86005B0BDE8F08F00001000002059
:101FE0002DE9F34F404C83B00846A16B0191FEF7F9
:101FF0004BF9E1698846FEF74DF9216FFEF7F2F8DB
:1020000004F194052067D5E9017949463846FEF781
:10201000E9F84146FEF73EF9064628682169FEF7D1
:10202000E1F83146FEF730F9EE6882464146304627
:10203000FEF730F983463946FEF729F980465846BF
:102040004946FEF724F9814630466169FEF7CAF831
:1020500083465046A169FEF7C5F80646314650460C
:10206000FEF74AF9074631464846FEF745F9064667
:10207000216E00910398FEF707F93946FEF70AF939
:102080000099FEF7AFF8014620660398FEF7FCF8CA
:102090003146FEF7FFF80199FEF7A4F8A063514618
:1020A0003846FEF7F7F85146FEF7F1F80446286087
:1020B00041463846FEF7EEF84146FEF7E8F8074697
:1020C000686021463046FEF7E5F84946FEF7DFF83E
:1020D000A86039463046FEF7DDF85946FEF7D7F8D6
:1020E000E86005B0BDE8F08F100000207CB5144614
:1020F0000D4606466B4606223B21682000F0A8F8F4
:1021000000280BD1BDF8001049BA3180BDF802108B
:1021100049BA2980BDF8041049BA21807CBD7CB53C
:1021200014460D4606466B4606224321682000F001
:102130008FF800280BD1BDF8001049BA3180BDF8E6
:10214000021049BA2980BDF8041049BA21807CBD2B
:1021500008B56B4602224121682000F079F8BDF8ED
:10216000000040BA00B2FEF7A7FA0022074BFEF7C4
:1021700026FA074A074BFEF709F9FEF7EEFA064979
:10218000FEF788F8FEF7A9FA00B208BD00407540D6
:10219000A4703D0AD74342400000C84210B5FFF783
:1021A00011FD80216B2000F0C2F86420FEF702FDD3
:1021B00000216B2000F0BBF8032000F084F8002021
:1021C00000F07CF8322000F09BF80021382000F06D
:1021D000AEF800216A2000F0AAF80021232000F0C8
:1021E000A6F88021372000F0A2F8752000F013F83F
:1021F000682801D0012010BD01216B2000F097F864
:1022000000216C2000F093F8322000F079F802F001
:1022100015FA002010BD10B50446FFF773FDD0205D
:10222000FFF73CFDFFF7AAFD2046FFF737FDFFF75C
:10223000A5FDFFF767FDD120FFF730FDFFF79EFDFD
:102240000020FFF7F9FC0446FFF77EFD204610BD95
:102250002DE9F0411D4614460F460646FFF752FD94
:102260007006000EFFF71AFDFFF788FD20B1FFF79B
:102270006BFD0120BDE8F0813846FFF70FFDFFF749
:102280007DFDFFF73FFD012000EB4600C0B2FFF7E8
:1022900005FDFFF773FD09E0012C0DD05FF0010093
:1022A000FFF7CAFC641E05F8010BE4B2002CF3D161
:1022B000FFF74AFD0020DDE70020F1E7C006010E30
:1022C0001C2000F034B8C006010E1B2000F02FB80F
:1022D000BC2801D3012110E0622801D302210CE0C7
:1022E0002A2801D3032108E0142801D3042104E0A3
:1022F0000A2801D3052100E006211A2000F017B8B2
:1023000010B504464FF47A70844201D9044602E0C5
:10231000042C00D20424B0FBF4F0401EC1B21920FA
:1023200000F005F86008BDE81040FFF7D1BF70B5B8
:102330000C460546FFF7E6FCD020FFF7AFFCFFF7A1
:102340001DFD50B92846FFF7A9FCFFF717FD2046F1
:10235000FFF7A4FCFFF712FD18B1FFF7F5FC012011
:1023600070BDFFF7F1FC002070BD2DE9F0411E4665
:1023700015460F460446FFF7C5FC6006000EFFF742
:102380008DFCFFF7FBFC60B93846FFF787FCFFF7D1
:10239000F5FC00240CE0305DFFF780FCFFF7EEFC5D
:1023A00020B1FFF7D1FC0120BDE8F081641CE4B24C
:1023B000AC42F0D3FFF7C8FC0020F5E72DE9F0416F
:1023C00086B0002425480094019402940394816906
:1023D00041F010018161816901F01001049181696E
:1023E00041F020018161816901F02001049181693E
:1023F00041F004018161816901F004010491816966
:1024000041F0080181618069154F00F008004FF428
:1024100000550490002229463846FEF7CAFCDFF832
:1024200044804FF44076002231464046FEF7C1FC1E
:1024300000950125CDE901540224694638460394EC
:10244000FEF7CAFB112000960394CDE90105694609
:102450004046FEF7C1FB06B0BDE8F0810010024027
:1024600000100140000C014010B586B0002418484F
:102470000094019402940394049414490594016017
:1024800042F20F71C0E9011441F61F41C0E9031483
:1024900044618461FEF7F2FF08B1FEF789FB4FF457
:1024A0008050009069460A48FFF75CF808B1FEF7D3
:1024B0007FFB049404A906480594FEF7AFFF0028AB
:1024C00001D0FEF775FB06B010BD0000002C0140E6
:1024D000F400002010B592B024216846FDF76AFE92
:1024E000002410941C2109A81194FDF763FE1E48D6
:1024F0004FF0804101606321C0E9011440F2CF2117
:10250000C0E903148461FFF759FA08B1FEF750FBE4
:102510000120CDE90004CDE902040494CDE9054091
:102520000794694610480894FFF787F808B1FEF74A
:102530003FFB109410A90C481194FEF76FFF08B1EF
:10254000FEF736FB6020CDE909040B940C2209A9A3
:1025500005480D94FFF7CFF908B1FEF729FB0248B3
:10256000FFF7A4F912B010BD3C01002010B58CB0EB
:1025700024216846FDF71EFE0024164809941449DC
:102580000A9401606321C0E9011440F2CF21C0E93F
:10259000031484610120CDE90004CDE90204049410
:1025A000CDE90540079469460A480894FFF745F8C5
:1025B00008B1FEF7FDFA099409A906480A94FEF746
:1025C0002DFF002801D0FEF7F3FA0CB010BD00007B
:1025D00000040040840100200C4810B50A49016045
:1025E0004FF4E1314160002181600C22C160C0E9FB
:1025F00004128161C161FFF750FA002803D0BDE8E1
:102600001040FEF7D5BA10BD00380140CC010020C3
:10261000FEE7FEE770477047FEF7D6BB30B58FB0D8
:1026200028216846FDF7C6FD14210AA8FDF7C2FD62
:1026300001210804CDE90010002402940225049130
:10264000CDE907504FF4E01009906846FEF740FDD1
:1026500008B172B6FEE70F20CDE90A054FF480609D
:10266000CDE90C4002210AA80E94FEF745FC002893
:1026700001D072B6FEE70FB030BD70470148FFF7DA
:1026800062B80000F40000200148FFF75CB80000C9
:102690003C0100200148FFF756B8000084010020EB
:1026A00070B50268134B144C4FF08046984203D02B
:1026B000B04201D0A04203D122F070054A682A43FB
:1026C000984203D0B04201D0A04203D122F440741A
:1026D000CA6822434C6922F08002224302608A6861
:1026E000C2620A688262984201D1096901630121CC
:1026F000416170BD002C01400004004010B58468A9
:1027000042EA032224F47F440A432243826010BD3C
:10271000826822F070020A4342F00701816070472C
:1027200030B5026A22F001020262026A43688469DB
:1027300024F073050C682C4322F002058A682A43B2
:102740000A4DA8420BD122F00805CA6823F4407351
:102750002A434D6922F004021D438B692B434360D9
:10276000846149684163026230BD0000002C014071
:1027700030B5026A22F010020262026A436884697C
:102780000D6824F4E64444EA05248D6822F0200212
:1027900042EA05120B4DA8420ED1CD6822F080020C
:1027A00042EA05124D6923F4406343EA85038D69CB
:1027B00022F0400243EA85034360846149688163F3
:1027C000026230BD002C014030B5026A22F48072F2
:1027D0000262036A4268C46923F4007324F073053B
:1027E0000C682C438D6843EA05230C4DA8420ED19A
:1027F000CD6823F4006343EA05234D6922F4405277
:1028000042EA05128D6923F4806342EA05124260B0
:10281000C4614968C163036230BD0000002C0140FF
:1028200030B5026A22F480520262046A4268C369C7
:102830000D6823F4E64343EA05238D6824F400542D
:1028400044EA0534064DA84204D14D6922F4804281
:1028500042EA85124260C36149680164046230BD86
:10286000002C014010B5036A046A24F001040462DC
:10287000846924F0F00444EA021423F00A020A43B3
:102880008461026210BD10B5036A23F01003036275
:102890008369046A23F4704343EA023224F0A003FC
:1028A00043EA01118261016210BD000070B5044667
:1028B00000680169E26821F4405111430161216916
:1028C000A0680843616908432168CA6841F20C6343
:1028D0009A430243CA6020684169A26921F44071A9
:1028E000114341611E492068884202D1FEF7AAFBCC
:1028F00001E0FEF797FB00EBC00101EB00126068FE
:1029000064218000B2FBF0F3B3FBF1F36FF0180623
:102910007343B2FBF0F5B2FBF0F605EB830532230F
:1029200003EB0515B5FBF1F5B6FBF1F605F0F00587
:1029300005EB0615B2FBF0F6B2FBF0F0B0FBF1F0E0
:102940006FF01802504306EB800003EB0010B0FB61
:10295000F1F0216800F00F002844886070BD00008D
:1029600000380140FEE700000FB4054B10B503A985
:10297000044A029800F0AAF810BC5DF814FB0000AD
:10298000F53E0008EC000020490050EAC12018BFC5
:1029900004204A0D18BF40F0010040F2FF72B2EB74
:1029A000515F08BF40F00200012808BF05207047B2
:1029B0000907090E002804DB00F1E02080F800146C
:1029C000704700F00F0000F1E02080F8141D704700
:1029D0002DE9F0414F1E00EBC7010446D1E900018B
:1029E00015461E4637F006020DD02A463346FDF73F
:1029F00074FD7F1E04EBC703D3E90023FDF7C6FC7B
:102A000037F00602F1D1022F25D0042F13D0062F64
:102A100018BFBDE8F0812A463346FDF75EFDD4E9D4
:102A20000A23FDF7B3FC2A463346FDF756FDD4E9E9
:102A30000823FDF7ABFC2A463346FDF74EFDD4E9EB
:102A40000623FDF7A3FC2A463346FDF746FDD4E9ED
:102A50000423FDF79BFC2A463346FDF73EFDD4E9EF
:102A60000223FDF793FC2A463346FDF736FDD4E9F1
:102A70000023BDE8F041FDF789BC0122FDF76FBFDF
:102A8000FDF784BC0022134610461146FDF797BDA2
:102A9000024A00201107FDF762BF000001FDFFFFA1
:102AA00002E008C8121F08C1002AFAD17047704717
:102AB000002001E001C1121F002AFBD17047000075
:102AC0000149086070470000F00000202DE9FF4F29
:102AD0008DB00F460546002606E025280BD0DDE91F
:102AE0000F1290476D1C761C28780028F5D111B084
:102AF0003046BDE8F08F0024A246A1460122EC49F1
:102B000000E0044315F8013F203B02FA03F00842BD
:102B1000F7D128782A2810D06FF02F022878A0F15A
:102B20003001092914D80AEB8A0102EB410144F073
:102B3000020400EB010A6D1CF0E701CF5FEA000A16
:102B400003D544F40054CAF1000A44F002046D1C99
:102B500028782E2817D115F8010F44F004042A28EC
:102B60000ED06FF02F022878A0F1300109290AD881
:102B700009EB890102EB410100EB01096D1CF2E751
:102B800057F8049B6D1C28786C280FD006DC4C2865
:102B900017D068280DD06A2814D104E0742810D00A
:102BA0007A280FD10DE044F400140AE044F48014B4
:102BB00001E044F440146978814202D104F58014A4
:102BC0006D1C6D1C2A786E2A1FD00CDC632A31D054
:102BD00004DC002A8BD0582A11D1A3E0642A68D0E3
:102BE000692A0CD165E0732A2ED004DC6F2A73D0D9
:102BF000702A04D19BE0752A6FD0782A6ED01046D7
:102C0000DDE90F129047761C50E1C4F30250022810
:102C100006D0032809D0042801CF09D0066045E179
:102C200001CFF117C0E9006140E101CF06803DE12D
:102C300006703BE117F8040B8DF8000000208DF8BA
:102C40000100EB46012003E057F804BB4FF0FF30D2
:102C500061074FF0000102D40DE008F10101884640
:102C600049450FDA8045F8DB1BF808100029F4D13C
:102C700008E008F1010188468142FADB1BF80810E0
:102C80000029F6D1DDE90F23AAEB08008146214691
:102C900000F036F9304400EB080604E0DDE90F12DD
:102CA0001BF8010B9047B8F10108F7D221464846BE
:102CB000F7E00A21C4F302534FF0000B0891022BF6
:102CC00004D001CFC117032B09D00AE0FF1D27F064
:102CD0000707F7E8020108E032E01FE020E000B259
:102CE000C117042B01D140B2C117031E71F10003BB
:102CF00007DA4FF0000CD0EB0C006CEB01012D2338
:102D000002E0230504D52B238DF82430012303E0B2
:102D1000E30701D02023F7E7984658E00A2110E0A6
:102D200010210EE010204FF0000B08900CE0102155
:102D30004FF0000B44F004044FF00809089103E041
:102D400008214FF0000B0891C4F30253022B04D06A
:102D500001CF0021032B06D006E0FF1D27F0070757
:102D6000F7E8020103E080B2042B00D1C0B24FF0BB
:102D7000000823072BD5702A07D0DDF820C08CF07F
:102D8000100C5CEA0B0C05D00EE040238DF82430CB
:102D9000012308E050EA010306D030238DF82430E7
:102DA0008DF8252002239846DDF820C08CF0080C11
:102DB0005CEA0B0C0BD150EA010301D1630706D585
:102DC00030238DF824304FF00108A9F10109582A69
:102DD00004D038A20B9208AA0A920BE03AA2F9E7B3
:102DE0005B46089AFDF7D5FC0B9B9B5C0A9A521E2A
:102DF0000A92137050EA0102F2D10A98ADEB00007A
:102E000000F1200B600702D524F4803401E04FF07C
:102E10000109D94502DDA9EB0B0000E0002000EB21
:102E20000B0141440890AAEB010AE00306D4DDE956
:102E30000F232146504600F063F806444FF0000986
:102E400008E009A911F80900DDE90F12904709F11E
:102E50000109761CC145F4DBE0030CD5DDE90F2345
:102E60002146504600F04CF8064404E0DDE90F121C
:102E700030209047761C0899481E08900029F5DC00
:102E800008E00A980A990078491C0A91DDE90F12B6
:102E90009047761CBBF10001ABF1010BF1DC214640
:102EA0005046DDE90F2300F019F806446D1C1BE6BF
:102EB0000928010030313233343536373839616210
:102EC00063646566000000003031323334353637D4
:102ED0003839414243444546000000002DE9F041A5
:102EE000044600251E461746880404D405E03946EA
:102EF0002020B0476D1C641EF9D52846BDE8F0813E
:102F00002DE9F041044600251E469046C80301D530
:102F1000302700E02027880404D505E041463846E4
:102F2000B0476D1C641EF9D52846BDE8F08100004D
:102F30002DE9FE4F07460E460025684600F0E4FFE7
:102F400000246FF00F0AE8464FF0010957F82400FB
:102F500056F82410401A00D54042FDF79FFB514619
:102F6000FDF708FA58F8241011F0FF4F0BD0FDF7C9
:102F7000C3F94FF07E51FDF787F90A4920F0004070
:102F8000884205DC07E0084908440849884202D322
:102F900009FA04F00543641C032CD7DB2846BDE87E
:102FA000FE8F0000295C0F3E666666C19A99D900C3
:102FB0002DE9F04D8D4F21F0004A86B005460C46B4
:102FC000BA452ADBAAEB070028430AD08848824585
:102FD00001DC1AD1CDB106B02846BDE8F04DFFF7AF
:102FE0004CBD844A844B2846FDF777FA07460E46C7
:102FF000824A834B28462146FDF76FFA06B03A46CF
:103000003346BDE8F04DFDF7C1B90120FFF758FD8B
:1030100006B0BDE8F04DFFF735BD7A48824542DA8B
:10302000BAF1795F0BDA2846FFF7AEFC042808BF37
:10303000FFF72EFD284606B02146BDE8F08D2A4652
:103040000B461046FDF749FA834602466E480E4687
:103050000B4606217844FFF7BBFC5A463346FDF782
:103060003CFA804669488A465A46334604217844E9
:10307000FFF7AEFC5A463346FDF72FFA00223B46D7
:10308000FDF784F902460B4640465146FDF797FA94
:103090002A462346FDF721FA06B02A462346BDE814
:1030A000F04DFDF773B9284624F0004100223D465B
:1030B0003B46FDF70FFA4FF0FF32FDF750FC064696
:1030C000024653480F460B4606217844FFF780FC22
:1030D00032463B46FDF701FACDE900014D48324644
:1030E0003B4604217844FFF773FC32463B46FDF72C
:1030F000F4F900222B46FDF749F983460291304648
:10310000394602F049F9804643480D46504517DCE0
:10311000DDE900015A46029BFDF751FA42462B4673
:10312000FDF7DBF942462B46FDF730F90122FDF7AA
:1031300016FC304A304BFDF7CAF9304A304B4CE0B0
:103140004FF0000A52460B464046FDF71FF9CDE905
:10315000031052462B4610461946FDF7BEF932467B
:103160003B46FDF7B7F9DDE90332FDF728FA0646DD
:103170000F46DDE900015A46029BFDF720FA83461F
:103180000091012230463946FDF7E9FB194A1A4BF6
:10319000FDF7A0F906460F46012240462946FDF7F5
:1031A000DEFB5A46009BFDF798F932463B46FDF799
:1031B0008EF906460F46012250462946FDF7CFFB01
:1031C0000E4DDFF858802A464346FDF783F9324614
:1031D0003B46FDF77FF92A464346FDF77BF9002C75
:1031E000D8BF81F0004106B0BDE8F08D0000F03F8F
:1031F0000000F07F075C143326A6913C182D445440
:10320000FB21F93F0000E03FF02F000006300000F6
:103210007A2F0000902F00003333EF3FFB21E93F6E
:103220002DE9F84F04460D4621F000400091734906
:10323000814211DC7249884201DC06D12CB1204662
:103240002946BDE8F84FFFF718BC6E48002DCCBFEB
:103250006D496E49BDE8F88F6D49814211DD6D49B8
:103260008142D8BF4FF0FF366DDD20462946FFF77B
:103270008BFB042808BFFFF70BFC20462946BDE85E
:10328000F88F6549654F25F00045814233DD64497B
:10329000814219DD002632464FF080432046294600
:1032A000FDF774F880468A46012220462946FDF73C
:1032B00056FB00223B46FDF70AF942465346FDF70E
:1032C0007EF904460D463EE001260022BA463B4602
:1032D00020462946FDF75AF880460F4600225346FD
:1032E00020462946FDF7F3F842463B46FDF767F9CD
:1032F00004460D4627E04B4981421BDDDFF828A13B
:1033000002260022534620462946FDF7E6F8002211
:103310003B46FDF73BF880460F46002253462046C9
:103320002946FDF7D4F842463B46FDF748F90446E6
:103330000D4608E0032622462B4600203B49FDF7B8
:103340003EF904460D4622462B4610461946FDF727
:10335000C4F88B46824602460B46FDF7BEF8074688
:103360000246334888460B4606217844FFF730FB77
:1033700052465B46FDF7B1F882462E488B463A46E8
:10338000434605217844FFF723FB3A464346FDF7C1
:10339000A4F802460B46002E504659460CDAFCF7BC
:1033A000F5FF22462B46FDF798F801B022462B4642
:1033B000BDE8F04FFDF78EB8FCF7E8FF22462B463C
:1033C000FDF78BF81C4A7A4402EBC603D3E90023CD
:1033D000FDF77DF822462B46FDF779F8174A7A4427
:1033E00002EBC603D3E90023FDF774F8009A002A24
:1033F000B8BF81F00041BDE8F88F00000000104424
:103400000000F07F182D4454FB21F93FFB21F9BF48
:103410000000DC3F0000203E0000F33F0000F03FD2
:103420000000E63F008003400000F83F0000F0BFCE
:10343000922D0000502D0000EE2C0000B62C000054
:103440002DE9F04D9446CCF1000423F000464CEAFF
:103450000404524F46EAD4749A46884621F000424A
:10346000BC4206D8454240EA050442EAD474BC4254
:1034700004D9BDE8F04D6246FFF702BBAAF1405502
:10348000A5F17F6555EA0C040BD0022404EAAA7466
:10349000434DDFF810E144EAD87452EA000B04D03F
:1034A0000CE0BDE8F04DFFF7BBBE002C14BF012CB3
:1034B000BDE8F08D022C30D0032C32D056EA0C0B34
:1034C0000AD0BE4220D1BA4209D126F0804622F06D
:1034D00080423346114617E000291ADB25E0DFF869
:1034E000C8B0FB44002C04BFDBE90001BDE8F08D4F
:1034F000012C02BFDBE9000181F00041BDE8F08D45
:10350000022C0AD0032C0CD0BA4212D1B8F1000F11
:103510000BDA23482549BDE8F08D28462449BDE84B
:10352000F08D28467146BDE8F08D1D482149BDE863
:10353000F08D921B12153C2AC4BF19481D490EDCA0
:10354000BAF1000FBEBF12F13C0F0020014606DBAE
:103550006246FDF734F821F00041FFF761FE002CD0
:1035600008BFBDE8F08D012C04BF81F00041BDE82B
:10357000F08D114A114B022C07D0FCF7A8FF2A4608
:10358000BDE8F04D0A4BFCF7A2BFFCF7A0FF2A46AE
:10359000BDE8F04D064BFCF79DBF00000000F07F3A
:1035A000182D4454FB2109C04A2C0000FB21F9BF0F
:1035B000FB210940FB21F93F075C143326A6A13CFF
:1035C00008B560B120208DF8000028208DF801009A
:1035D00030208DF8020038208DF8030004E0A3228B
:1035E00004216846FCF7DFFD6A46042140F69E2070
:1035F00001F03CFE01F0FAFA08BD00003EB50446B9
:1036000002208DF80000CA208DF80100E3208DF81B
:10361000020009208DF803006A460421682001F0A9
:1036200025FEA3208DF80000610609D5C0218DF884
:103630000110C8218DF80210C2218DF8031005E099
:103640008DF801008DF802008DF8030014F4C07F9E
:1036500009D0C4218DF80410CC218DF80510C621A5
:103660008DF8061005E08DF804008DF805008DF842
:1036700006008DF808008DF807008DF809006A46ED
:103680000A2140F6A72001F0F1FDA0074FF0D80570
:1036900003D020208DF8000001E08DF800506A462C
:1036A000012140F6B62001F0E1FDA00601D5012080
:1036B00000E0002000F08EF814F4C07F1ED0E0057A
:1036C0000AD5B2208DF800008B208DF80100B620BD
:1036D0008DF802009B2009E0B0208DF800008020CA
:1036E0008DF80100B4208DF8020090208DF80300C1
:1036F0006A46042140F6A22001F0B8FDE1074FF42C
:103700000B6022D0F8218DF800106A46012101F0EB
:10371000ADFDFA21072000F039FB072000F004FB83
:10372000012000F021FB642000F0C4FB4FF4FA708C
:1037300000F0D0FBC821254800F0BEFA282000F098
:10374000D3FA0A2000F0E0FA05E08DF800506A464E
:10375000012101F08BFDA00703D5D9208DF80000D1
:1037600001E08DF800506A46012140F23D7001F001
:103770007DFD600701D5012000E0002000F048F841
:10378000E00601D5012000E00020FFF719FF104DF1
:1037900044F00800688101F029FA0020A87360064F
:1037A00001D50620A87314F4C07F02D0A87B801D29
:1037B000A87314F0140F02D0A87B1030A873A007D0
:1037C00002D0A87B001DA87300203EBD09E3CA02F9
:1037D000100200200EB54FF4976310B106A107C97F
:1037E00001E008A207CA8DE807006A4609211846C9
:1037F00001F03CFD0EBD0000B8AAB38DB4980D35A4
:103800005D000000B8AAAAAAB088C3C5C70000001E
:1038100008B560B1C0208DF80000C2208DF801000D
:10382000C4208DF80200C6208DF8030004E08B222E
:1038300004216846FCF7B7FC6A46042140F698204C
:1038400001F014FD01F0D2F908BD0000C8234FF4C7
:103850008062024940F6F63001F0AAB84C540008E4
:103860002DE9FF4F89B01746DDE9165200244C4E72
:10387000884681462C80A246B07B694601F044F917
:103880004FF0FF3B18B158460DB0BDE8F08F70897E
:1038900010F0140F3CD0009909BA21F0FF039DF8F5
:1038A00003100B433B6001991B1409BA21F0FF027E
:1038B0009DF807105B430A437A6002999DF80B401C
:1038C00009BA21F0FF012143B960039C091424BA0D
:1038D00024F0FF0C9DF80F4012144CEA040CC7F8BA
:1038E0000CC04FEA2C47494302FB023207FB071189
:1038F00011441024A1F17061B1F1007F04D901F0ED
:1039000075F9A5F800A0BEE7298841F480712980E7
:103910004206694611D50A19A41D13885BBAA8F896
:10392000003053885BBAA8F80230928852BAA8F8DF
:1039300004202A8842F008022A8010F4C07F11D0A7
:103940000A19A41D13885BBAA9F8003053885BBA22
:10395000A9F80230928852BAA9F804202A8842F0C5
:1039600070022A80800716D00C44E07800F0C00571
:1039700000F03F016078C00706D0C80801F00701D9
:103980003268491C02B190476078000703D571681E
:1039900009B1A80988470C9800F056FD002073E78C
:1039A000100200202DE9FF41044603A800F0B6FEF6
:1039B000BDF80C00410CC3032F48028902F003003C
:1039C000550754F8200000D54042C2F3C1059606C1
:1039D00054F8255000D56D42C2F38116D20554F833
:1039E000264000D56442A0FB0367C21702FB0372A6
:1039F00000FB0120820042EA9670A5FB0367EA17EC
:103A000002FB037205FB0122950045EA9672A4FBB6
:103A10000367E51705FB037304FB01318B0043EAE1
:103A20009671030E8DF80030030C8DF80130030AF7
:103A30008DF802308DF80300100E8DF80400100C84
:103A40008DF80500100A8DF80600080E8DF80800A4
:103A5000080C8DF80900080A8DF80A008DF8072077
:103A60008DF80B106A460C214FF4257001F0FEFB17
:103A700004B0BDE8F08100001002002030B504461B
:103A800013A285B007CA8DE807004FF0FF35C82C98
:103A900016D8C820B0FBF4F1491E080A8DF80C00B6
:103AA0008DF80D1003AA022140F2162001F0DEFB72
:103AB00030B96A460C2140F6C12001F0D7FB10B1A5
:103AC000284605B030BD054884810020F9E7000094
:103AD000FEF2ABC4AAF1DFDFBBAFDFDF10020020D4
:103AE000F8B53049098901F0030250F822404A072D
:103AF00000D56442C1F3C1028B0650F8222000D5E4
:103B00005242C1F3811350F82330C80500D55B42FF
:103B1000254984FB0140850045EA947082FB0142FF
:103B2000A40F44EA820483FB0121950F45EA810535
:103B3000010E8DF80010010C8DF80110010A8DF8AE
:103B400002108DF803006A4604214FF4747001F0EE
:103B50008DFB4FF0FF3688B9200E8DF80000200C49
:103B60008DF80100200A8DF802008DF803406A46A6
:103B700004214FF4757001F079FB08B13046F8BDAF
:103B8000280E8DF80000280C8DF80100280A8DF809
:103B900002008DF803506A4604214FF4767001F05C
:103BA00065FBF8BD1002002009E3CA022DE9FF41C0
:103BB00004463CA004F00303006802903AA00068A9
:103BC00003903AA006683AA0056802A8C15C8DF887
:103BD0000010C4F3C101425C8DF80120C4F38112CE
:103BE000805C8DF8020003A8C35C8DF80430415C52
:103BF0008DF80510805C8DF806006A46032140F2BE
:103C0000264001F033FB4FF0FF37E0BB01AA032150
:103C100040F22A4001F02AFBA8BBCDE9006560070D
:103C20000BD59DF8000040F001008DF800009DF8D4
:103C3000040040F001008DF80400A0060BD59DF8AB
:103C4000010040F001008DF801009DF8050040F0F2
:103C500001008DF80500E0050BD59DF8020040F04D
:103C600001008DF802009DF8060040F001008DF87B
:103C700006006A4603214FF4886001F0F7FA10B994
:103C800001AA032100E004E040F2314001F0EEFA25
:103C900018B1384604B0BDE8F08106480481002020
:103CA000F8E700004CCD6C000CC92C0036567600AD
:103CB00026466600100200204FF47A7290FBF2F064
:103CC00008B54843010E8DF80010010C8DF8011065
:103CD000010A8DF802108DF803006A4604214FF4A2
:103CE000AE7001F0C3FA08BD0521B0FBF1F008B5D4
:103CF000010A8DF800108DF801006A4602214FF488
:103D0000AD7001F0B3FA08BD0521B0FBF1F008B5C4
:103D1000010A8DF800108DF801006A4602214FF467
:103D2000AC7001F0A3FA08BD08B500218DF80010B1
:103D3000C10702D030218DF80010810705D59DF80C
:103D4000001041F00C018DF80010400705D59DF8DA
:103D5000000040F003008DF800006A4601214FF496
:103D6000A47001F083FA08BD08B560B1042800D939
:103D70000420401E8DF800006A46012140F24F10D9
:103D800001F074FA08BD0120F3E700002DE9FC41C1
:103D9000054640074FF0FF367CD0B1F5C86F79D8A3
:103DA0000846FCF784FC3E49FCF7A6FA074601A842
:103DB00000F096FC9DF80400022806D004280DD0DF
:103DC00008282ED0102865D134E00E213846FCF7A3
:103DD000D1FAFCF79BFC84B2324907E00D2138464A
:103DE000FCF7C8FAFCF792FC2F4984B23846FCF77E
:103DF00051FAFCF78BFC210A8DF8001080B28DF887
:103E00000140010A8DF802108DF80300E8076C46A6
:103E100020D0224602214FF4EA7001F027FAC8BBF5
:103E200011E00C213846FCF7A5FAFCF76FFC84B2D0
:103E30001E49DBE70B213846FCF79CFAFCF766FCD1
:103E400084B21B49D2E7A21C02214FF4927001F008
:103E50000DFAF8B9A8070DD56A4602214FF4EC70A7
:103E600001F004FAB0B9A21C02214FF4947001F0E1
:103E7000FDF978B9680710D56A4602214FF4EE7053
:103E800001F0F4F930B9A21C02214FF4967001F050
:103E9000EDF910B13046BDE8FC810020FBE70000E1
:103EA00000004843000040460000C0450000404577
:103EB0000000C0440521B0FBF1F008B5010A8DF8FF
:103EC00000108DF801006A4602214FF4EF7001F0F6
:103ED000CDF908BD0521B0FBF1F008B5010A8DF858
:103EE00000108DF801006A4602214FF4ED7001F0D8
:103EF000BDF908BD38B504468DF8000069460320B9
:103F0000ABBE204638BD00002DE9FE4306462648DC
:103F100001AB042240680D210078FEF799F910B139
:103F20000720BDE8FE839DF804101C2000EAD102A2
:103F30009DF80710DFF87490C1F301131A438DF850
:103F400000209DF80520C1F3810300EAD2021A4344
:103F50008DF801209DF8062001F0030100EAD2004F
:103F600008430024124F8DF80200A0466D46285DDC
:103F700010B146F824900AE046F824800DE000BF16
:103F800056F824003946FCF785F946F82400285DE8
:103F9000401E10F0FF002855F2D1641CE4B2032C3F
:103FA000E5D30020BDE70000B40000207B14AE3E46
:103FB0001D5A843F2DE9FE4F05460120C14E8DF864
:103FC00000004FF000088DF8018030680C4617465D
:103FD000817C70686B4602220078FEF7C6F94FF0CC
:103FE000FF3A00287AD1C820FCF7E4FD8DF8008064
:103FF00030686B460122C17B70680078FEF7B5F926
:104000000028EFD130686B46012241797068007852
:10401000FEF7ABF90028E5D130686B460122817CC0
:1040200070680078FEF7A1F90028DBD130686B4694
:104030000122C17D70680078FEF797F90028D1D180
:1040400030686B460122017970680078FEF78DF9BF
:104050000028C7D14FF00C098DF8009030686B46EE
:104060000122017970680078FEF77FF9002835D1C8
:104070000F20FCF79FFDB06A6B460122407A8DF855
:1040800000003068817870680078FEF76EF90028CB
:1040900024D1B06A6B460122007A8DF800003068A6
:1040A000417870680078FEF760F9002873D1B06A33
:1040B000807A0FB140F0E0008DF8000030686B4668
:1040C0000122817970680078FEF74FF9002862D1EB
:1040D0002FB1B06AC07A40F0E00001E04AE0182059
:1040E0008DF8000030686B460122C1797068007855
:1040F000FEF73BF9F0BB17B1C820FCF75BFD402091
:104100008DF8000030686B460122017970680078F4
:10411000FEF72BF970BB78208DF8000030686B46F5
:104120000122417970680078FEF71FF910BB322038
:10413000FCF740FD8DF80080306847466B464179BA
:10414000706801220078FEF710F998B9316870683C
:10415000B046897A00786B460222FEF779F848B9B2
:10416000BDF80000AF6040BAB0FBF9F06F60C6B2B6
:104170002F6000E00FE0A76067602760002739E04C
:10418000D8F80010D8F804006B46C97A00780C22E1
:10419000FEF75EF810B15046BDE8FE8FBDF8000096
:1041A000236840BA02B2BDF80200BDF804101A44F8
:1041B000226040BA626800B21044606049BAA068E8
:1041C00009B20844A060BDF806002B6840BA02B2EC
:1041D000BDF808001A4440BA01B2BDF80A002A60CE
:1041E0006A6840BA11446960A96800B208447F1C3B
:1041F000FFB2A860B742C3D328688322C11709045D
:1042000041EA104100040023FBF78CFF32460023F3
:10421000FBF788FF286068688322C117090441EA18
:10422000104100040023FBF77DFF32460023FBF71B
:1042300079FF6860A8688322C117090441EA104128
:1042400000040023FBF76EFF32460023FBF76AFFF2
:10425000A86020684FF40065C117090441EA1041C5
:1042600000042A460023FBF75DFF32460023FBF7DC
:1042700059FF206060682A46C117090441EA1041CD
:1042800000040023FBF74EFF32460023FBF74AFFF2
:104290006060A0682A46C117090441EA1041000481
:1042A0000023FBF73FFF32460023FBF73BFFA060F4
:1042B000002802DDA0F5803001E000F58030A0602C
:1042C000002069E7B40000202DE9F84F81462E4810
:1042D0008846002540686B46032200780D21FDF7D3
:1042E000B7FF10B10720BDE8F88F9DF8000000244B
:1042F00000F01F008DF800009DF801006FF00F0B1B
:1043000000F01F008DF801009DF802006E4600F0DD
:104310001F008DF802004FF0010A00BF59F8241069
:1043200058F82400081A00D54042FCF7B7F959465E
:10433000FCF720F80746305DC0B1144802E014498C
:10434000FBF7A8FF315D491E11F0FF013155F6D191
:1043500001463846FBF7D0FF4FF07E51FBF794FF44
:104360000C4920F00040884205DC07E00A48384448
:10437000B0F1D97F02D90AFA04F00543641C032C7A
:10438000CCDB2846AFE70000B40000200000C841A5
:1043900054E3853F295C0F3E0000E0BE00B50246B5
:1043A00000F00DF80346D01C00F009F843EAC00302
:1043B000901D00F004F843EA801080B200BD90F92F
:1043C0000010002902DD4FF00000704702DA4FF0C4
:1043D0000400704790F90110002902DD4FF0010040
:1043E000704702DA4FF00500704790F9020000288C
:1043F00002DD4FF00200704702DA4FF0060070470E
:104400004FF0070070470000FCF7E6FCFEF706F9E6
:10441000FDF7D4FFFEF728F8FEF75CF8FEF7A6F8E4
:10442000FEF7DAF80648FDF775F80648FDF772F86A
:10443000FDF7B4FE3220FCF7BDFBFCF70BFBF9E700
:10444000F40000203C010020704700002DE9F041FD
:10445000124C20F00101002594F8240010B1002036
:10446000BDE8F081A07A4FF0FF3668B10840277CA4
:104470002074884200D0354641B1012000F060FF31
:1044800000F0B4FB38B127743046E9E7207D00B175
:10449000012000F055FF2846E2E70000B4000020AC
:1044A0002DE9F74F8EB00CA902A8CDE900010BABA6
:1044B00003AA09A907A8FFF7D3F918B1012011B081
:1044C000BDE8F08FBDF80800C0057DD50398FCF766
:1044D000E5F86FF01D042146FBF74CFF8246049877
:1044E000FCF7DCF82146FBF745FF81460598FCF711
:1044F000D5F82146FBF73EFF80460698FCF7CEF83C
:104500002146FBF737FF054601215046FBF732FFF6
:1045100006464146FBF7BEFE04464FF04041484682
:10452000FBF7B8FE07462946FBF7B4FE2146FBF72A
:1045300059FEFCF7FFF8FEF73BFD4FF0663B5A468D
:104540003D4BFBF7CAFFFCF708F90E990860012103
:104550004046FBF70FFF41460090FBF79BFE0446E9
:1045600038464946FBF796FE2146FBF78DFE4FF095
:104570007E51FBF737FEFCF7DDF807460C46304668
:104580004946FBF787FE064629460098FBF782FE60
:104590003146FBF727FEFCF7CDF83A462346FEF7F7
:1045A0004FFF5A46244BFBF798FFFCF7D6F80F99BC
:1045B000086029460846FBF76DFE07464146084657
:1045C000FBF768FE064600E034E049460846FBF784
:1045D00061FE044651460846FBF75CFE2146FBF7A8
:1045E00001FE3146FBF750FE3946FBF74DFEFCF766
:1045F000A1F806460C4629465046FBF74BFE0546F9
:1046000041464846FBF746FE2946FBF7EBFD0121F4
:10461000FBF7B0FEFCF78EF832462346FEF710FF9C
:104620005A46054BFBF759FFFCF797F810990860BD
:10463000002044E7022042E766A64C4010B5FDF793
:10464000C1FA00F0F1F808B10A2010BD782000F09E
:10465000B1FD10F0FF0F01D0012010BD7820FFF751
:10466000F5FE10F0FF0F01D0022010BD642000F015
:1046700061FD10F0FF0F01D0032010BDFFF7E6F839
:1046800010F0FF0F01D0042010BD1448FFF786FE84
:10469000FFF78CFA10F0FF0F01D0052010BD40F29B
:1046A0007310FEF7ABFF10F0FF0F01D0062010BD16
:1046B0006420FFF7E3F910F0FF0F01D0072010BDD1
:1046C00000F0FEFD08B1082010BD012000F058FCEC
:1046D00010F0FF00F8D0092010BD0000E00000201D
:1046E0000D494A7A42B1012A08D0022A0FD0032A82
:1046F0000FD04FF0FF307047022200E0042202701A
:10470000C97C11B11106C90D017000207047082243
:10471000F5E71022F3E70000B40000200F494A7AC1
:1047200042B1012A09D0022A11D0032A12D04FF037
:10473000FF3070474FF4804201E041F69C720280E6
:10474000C97C11B1C2F34E010180002070474FF4C3
:104750008052F4E74FF40062F1E70000B40000205B
:104760000B49097A39B1012907D002290AD0032956
:104770000BD0002103E0FA2101E04FF4FA7101802F
:10478000002070474FF47A71F9E74FF4FA61F6E7C9
:10479000B40000200A49097A41B1012908D0022950
:1047A0000AD003290AD04FF0FF307047054900E0D6
:1047B00005490160002070470449FAE70449F8E719
:1047C000B40000200000034300008342333303425F
:1047D000333383410C49C97A072913D2DFE801F04A
:1047E0001204060A0C0E1000BC2100E062210180B8
:1047F000002070472A21FAE71421F8E70A21F6E79A
:104800000521F4E70021F2E7B4000020054991F802
:10481000242012B14FF0FF307047C9890180002079
:1048200070470000B40000202DE9FC414C4C802072
:104830008DF8000020686B460122817C606800785A
:10484000FDF793FD4FF0FF37002832D16420FCF7CD
:10485000B1F900258DF8005020686B460122817C5B
:1048600060680078FDF781FD002870D120686B46F4
:104870000622817D60680078FDF7EAFC002866D199
:104880009DF805009DF80310C007400F01F00101DD
:1048900040EA41019DF801004FF0010600F00100DF
:1048A000014309D0012905D0022915D02DA0FEF71A
:1048B0005BF84CE0E67410E020686B460122C1789A
:1048C00060680078FDF7C4FC40BB9DF8000010F064
:1048D0000F0020D0042822D0E574FF2004F80A0F2E
:1048E0004FF6FF7104F8020C04F8010C6070A1800F
:1048F000A0712072A67026766576E572A572E560D5
:1049000025616561A576E576A5834FF4FA6000F030
:1049100073FB18B907E01D48FEF726F817E01CA046
:10492000FEF722F8C6E7022000F088FA78B92A20BC
:1049300000F0CAFB58B9322000F0FCFB38B9002067
:10494000FFF784FD18B9002000F0ACFA10B138462A
:10495000BDE8FC81002000F02DFC0020F8E70000FD
:10496000B4000020556E737570706F7274656420AA
:10497000736F6674776172652070726F64756374AB
:10498000207265762025642E0A0000003861000838
:1049900048616C662073656E7369746976697479B1
:1049A000207061727420666F756E642E0A000000BC
:1049B0002DE9FF4FDFF89480064685B098F8250072
:1049C00015460F464FF0FF39B0BBAFB3002420E0CF
:1049D000301B102800DD102080B283463A190146B2
:1049E0009246204600F042FC30BB6A4659462046BB
:1049F00000F0D2F800BB50465A466946FBF7E5FB8B
:104A000020B16FF0010009B0BDE8F08F04EB0B009E
:104A100084B2B442DCD3280A8DF810008DF811500E
:104A2000D8F80000444604AB817ED8F80400022286
:104A30000078FDF79AFC08B14846E4E7012084F8C5
:104A400025000898E0840020DDE70000B400002085
:104A50002DE9F84305464FF0FF39282844D80727A9
:104A6000284C00267DB1012000F0FCFA20208DF8B2
:104A700000004FF00108012D17D0052D18D88DF832
:104A8000018005201FE0002000F0ECFA8DF80060A6
:104A90008DF8017020686B460222817C6068007886
:104AA000FDF763FC00BB267529E08DF80160E8E79F
:104AB000142D04D802208DF801000A2003E0032001
:104AC0008DF80100142000F0FFFA9DF801006B46FC
:104AD00007EB80108DF8010020680222817C60685D
:104AE0000078FDF742FC10B14846BDE8F883082085
:104AF000A072267384F814800020FFF7A7FC002022
:104B0000F3E70000B40000202DE9F843214C0646ED
:104B1000174694F8240089464FF0FF3890B3A07AE6
:104B200080B320686B460222817A60680078FDF7C6
:104B30008FFB38BBBDF8000045BAB54202D2002059
:104B400038701FE060684188B5EB510F11D92168BA
:104B500000786B46497C0122FDF77AFB90B99DF8FD
:104B60000000C00605D500F041F86FF00100BDE877
:104B7000F8832068F2B24B46C17A60680078FDF78E
:104B800067FB08B14046F2E7B5FBF6F0401E38700F
:104B90000020ECE7B4000020F8B516000D464FF0F9
:104BA000FF371FD0104CA17AE1B1010A8DF8001037
:104BB000C0B28DF80100411960684289914211D854
:104BC000216800786B46097E0222FDF7CEFB48B9CA
:104BD0002068EAB23346417D60680078FDF738FB13
:104BE000002800D03846F8BDB4000020F8B5564C77
:104BF0004FF0FF36A07A00287DD000258DF80050B8
:104C000020686B460122C17B60680078FDF7ADFB30
:104C1000002870D120686B460122417960680078D5
:104C2000FDF7A3FB002866D120686B4601220179BD
:104C300060680078FDF799FB00285CD194F82400A7
:104C4000E0B30C208DF8000020686B46012201794A
:104C500060680078FDF789FB002872D13220FBF7ED
:104C6000A9FFC0208DF80000A07AC00702D0E02084
:104C70008DF8000020686B46012201796068007899
:104C8000FDF773FB00285CD1607C18B102208DF821
:104C9000000001E08DF8005020686B460122C17BC6
:104CA00060680078FDF761FB28BB8DF80050206834
:104CB0006B4601224179606800783EE0FFE70420FE
:104CC0008DF8000020686B46012201796068007849
:104CD000FDF74BFB78B9A07C90B9A07AC0070FD044
:104CE0005FF060008DF8000020686B4601220179BA
:104CF0006068007800E024E0FDF737FB08BB01E0C6
:104D00004020EFE73220FBF755FF607C18B101200F
:104D10008DF8000001E08DF8005020686B460122FC
:104D2000C17B60680078FDF720FB50B92068064B16
:104D300001224179606810330078FDF716FB0028E6
:104D400000D03046F8BD0000B40000202DE9F04747
:104D5000394C82468AB094F824000F4620B10020D6
:104D600000F00EF9012600E0002607A8FFF7F8FC86
:104D700006A8FFF7B5FC09A8FFF72CFD08A8FFF768
:104D800045FD94F80A9094F81080002500223946D9
:104D90005046FFF70FF910B16D1C022DF6DB022D06
:104DA0001AD00025012203A96846FFF703F910B1C4
:104DB0006D1C022DF6DB022D0ED003A93846FEF73E
:104DC000B7F8C7B269465046FFF77EFA10F0FF0FFA
:104DD0004FF0000502D002E0002503E001250FB9E5
:104DE00045F00205FF2020726072E0724FF6FF71FD
:104DF000E181A072207401202073BDF81C0000F036
:104E0000FBF89DF8180000F019F8BDF8240000F038
:104E10005BF9BDF8200000F08DF9484600F0CAF9B2
:104E20004046FFF713FB16B1012000F0A9F80AB0C5
:104E30002846BDE8F0870000B400002038B5184CC3
:104E40004FF0FF35A17A19B3022806D0042806D006
:104E500008280ED010281BD10DE0002000E008200B
:104E60008DF80000607A9DF80010B0EBD10F04D0EF
:104E700005E01020F4E71820F2E7002038BD206894
:104E80006B460122C17960680078FDF76EFA08B1BF
:104E9000284638BD9DF80000C0086072EDE70000AC
:104EA000B4000020F8B5354C0546A07CA84201D1DD
:104EB0000020F8BD31484FF0FF366B46D0E90010B6
:104EC0004FF001020979007835B3FDF7C1F970BBE5
:104ED0009DF800006B4620F020008DF8000020684F
:104EE0000122017960680078FDF73FFAF8B90320E4
:104EF000FBF760FE02208DF8000094F8220078B3E2
:104F000082202BE020686B460122017D60680078DA
:104F1000FDF72BFA58B92EE0FDF79AF938B9A07AC7
:104F2000C0079DF8000003D040F0200002E00CE034
:104F300020F020008DF8000020686B4601220179E6
:104F400060680078FDF711FA08B13046F8BD03201B
:104F5000FBF730FE94F8220000B180208DF80000AD
:104F600094F823000028CDD09DF8000040F03000D8
:104F70008DF80000C6E7A5749AE70000B400002091
:104F800038B51C4C94F8241081421DD0002500B384
:104F900094F82500D0B1002000F0D2F90020FFF7EE
:104FA00081FFE08C00F0C6F88DF8005060686B4619
:104FB000012200782321FDF7D8F9012084F824008C
:104FC00000F0BEF9FFF712FE002038BD4FF0FF30B1
:104FD00038BD002000F0B4F9207C8DF80000606836
:104FE0006B46012200782321FDF7BFF984F8245095
:104FF000E8E70000B400002038B5194C4FF0FF3549
:10500000A17A31B3FA2809D0B0F5FA7F08D0B0F50B
:105010007A7F0FD0B0F5FA6F1BD10DE0002000E0D1
:1050200008208DF80000207A9DF80010B0EBD10F19
:1050300004D005E01020F4E71820F2E7002038BD86
:1050400020686B460122817960680078FDF78DF950
:1050500008B1284638BD9DF80000C0082072EDE771
:10506000B400002038B5174C054694F82300A84238
:1050700001D1002038BD0DB1302000E000208DF8B6
:105080000000A07C28B19DF8000040F002008DF8DF
:10509000000094F8220028B19DF8000040F0800044
:1050A0008DF8000020686B460122017D6068007861
:1050B000FDF75BF910B14FF0FF3038BD84F8235095
:1050C000D7E70000B400002038B5194C4FF0FF3589
:1050D000A17A31B3BC2801D3012010E0622801D3AA
:1050E00002200CE02A2801D3032008E0142801D371
:1050F000042004E00A2801D3052000E006208DF8F2
:105100000000E07A9DF80010884201D1002038BDEF
:1051100020686B460122817860680078FDF725F9E8
:1051200008B1284638BD9DF80000E072EEE70000A7
:10513000B4000020F8B51E4D04464FF0FF37A87AA2
:1051400048B395F8240030BB287D4FF47A7648B1F7
:1051500064B1282C03D8E0B2FFF77AFC26E00020E7
:10516000FFF776FC042C05D2042406E00020FFF7AC
:105170006FFCF9E7B44200D93446B6FBF4F0401EA8
:105180008DF8000028686B46012241786868007835
:10519000FDF7EBF808B13846F8BD9DF80000401C5B
:1051A000B6FBF0F0E8814008FFF78EFF0020F8BD65
:1051B000B4000020F8B5054610F0700F4FF000065F
:1051C00001D0012004E015B18DF8006002E040201C
:1051D0008DF80000244C6B4601222068817C6068B9
:1051E0000078FDF7C2F84FF0FF3760BB9DF8000074
:1051F00020F0400020738DF80060680602D404207F
:105200008DF80000A80605D49DF8000040F00200CB
:105210008DF80000E80605D49DF8000040F001007C
:105220008DF80000280705D49DF8000040F03800F4
:105230008DF8000020686B460122C17C6068007810
:10524000FDF793F810B1A6723846F8BD25B1082DC8
:1052500002D00020FFF706FFA57226753220FBF76B
:10526000A9FC0020F8BD0000B4000020F8B516002D
:105270000D464FF0FF371FD0104CA17AE1B1010A63
:105280008DF80010C0B28DF80100411960684289A4
:10529000914211D8216800786B46097E0222FDF701
:1052A00064F848B92068EAB23346417D6068007806
:1052B000FDF75BF8002800D03846F8BDB4000020A8
:1052C00010B588B0694604A8FFF740FD032802D056
:1052D000012008B010BD07A8FFF75CFA0498FBF79F
:1052E000DDF907990C46FAF7D5FFFBF7F6F90490BC
:1052F0000598FBF7D3F92146FAF7CCFFFBF7EDF958
:1053000005900698FBF7CAF92146FAF7C3FFFBF7A9
:10531000E4F9069004A8FEF7E3FB03A8FFF7FEF903
:10532000BDF80C000099414300910199414301915E
:105330000299414368460291FEF734FB0020C8E71A
:10534000F8B5144C0146224694F82460D2E90002D4
:1053500000235D1E56B179B1022111E0C17B1078A6
:105360006B460122FDF701F868B90EE0A67A56B146
:1053700011B1617C61B902E08DF80030EEE70121E6
:105380008DF80010EAE72846F8BD9DF8000060742B
:105390000020F8BDB40000202DE9F04106460F467C
:1053A000FBF706FB04000D4618BF0120284320F040
:1053B0000040C0F17F6000F1E040C00F0ED0301C13
:1053C00018BF0120384320F00040C0F17F6000F199
:1053D000E040C00F04BF0120FDF772FB20462946C4
:1053E000BDE8F0810000000000000000010203049D
:1053F00006070809000000000102030475191A0CD1
:105400006A231B1C1F207274433B4138393A6B6C72
:10541000376F06246D6E700068000004760054013A
:10542000F7FD0001830000000008000000010018E3
:1054300032000500000020410000D242295C0F3EEE
:105440009A99993E3333733F295C0F3E00007000F8
:10545000000000240000000200030000006500546A
:10546000FFEF0000FA80000B12820001030C30C332
:105470000E8C8CE914D5400213710F8E3883F8839B
:105480003000F883258EF8833000F883FFFFFFFF9C
:105490000FFEA9D6240004001A8279A10000003C66
:1054A000FFFF00000010000038836FA2003E0330B1
:1054B0004000000002CAE3093E8000002000000016
:1054C000000000004000000060000000000C000030
:1054D000000C186E000006920A16C0DFFFFF02568D
:1054E000FD8CD377FFE1C496E0C5BEAA00000000A2
:1054F000FFFF0B2B0000165700000359400000006F
:1055000000001DFA00026C1D000000003FFFDFEBF1
:10551000003EB3B6000D227800002F3C00000000D2
:10552000001942B5000039A20000B365D90E9FC929
:105530001DCF4C3430000000500000003BB67AE82C
:105540000064000000C8000000000000100000001F
:105550001000FA921000225E000D229F0001000050
:1055600000320000FF46000063D40000100000007D
:1055700004D6000004CC000004CC0000000010722F
:1055800000000040000000000000000000060002D3
:10559000000500070000000000640000000000009B
:1055A000000000050005006400200000000000006D
:1055B0000000000000004000000003000000003276
:1055C000F8980000FF650000830F0000FF9BFC00BF
:1055D00000000000000000000000000000000000CB
:1055E00000000000000000000000000000000000BB
:1055F000000000000000000000001000400000005B
:10560000000000060000B26A000200000001FB83F7
:105610000068000000D9FC007CF1FF83000000005E
:1056200000650000006403E8006400280000002515
:105630000000000016A00000000010000000100094
:10564000002F0000000001F40000100000280000FE
:10565000FFFF4581FFFFFA7200000000000000001C
:10566000004400050005BAC6004778A2000000010A
:105670000000000000000600000000140000254D9E
:10568000002F706D000005AE000C02D0000000007D
:10569000000000000000000000000000001B0000EF
:1056A0000000000000000000000000000064000096
:1056B00000080000000000000000000000000000E2
:1056C00000000000000000000000000000000000DA
:1056D00000000000000000000000000000000000CA
:1056E00000000000000000000000000000000000BA
:1056F00000000000000000000000000000000000AA
:10570000000000000000000000000000001B00007E
:105710000000000000000000000E000E00000AC79C
:105720000004000000000032FFFFFF9C00000B2B74
:10573000000000020000000100000064FFE500001E
:105740000000000000000000000000000000000158
:1057500000000000000100000000000000018000C7
:105760000001800000018000002426D3000000001A
:1057700000000000000600100096003C0000000041
:105780000000000000000000000000000C0A4E684D
:10579000CDCF770950166759C619CE820000000098
:1057A00000000000000000000000000000000000F9
:1057B0000000000017D78400030000000000000074
:1057C00000000000C7938F9D1E1B1C1900000000E5
:1057D00000000000000000000000000000000000C9
:1057E00000000000020318850000400000000003D4
:1057F0000000000300000000000000004000000066
:105800000000000000000000000000000000000098
:105810000000000000000000000000000000000088
:105820000000000000000000000000000000000078
:10583000677DDF7E72902E554CF6E68800000000F2
:10584000000000000000000000000000D8DCB4B838
:10585000B0D8B9ABF3F8FAB3B7BB8E9EAEF132F560
:105860001BF1B4B8B08097F1A9DFDFDFAADFDFDF7B
:10587000F2AAC5CDC7A90CC92C97F1A989264666FD
:10588000B28999A92D557DB0B08AA896365676F181
:10589000BAA3B4B280C0B8A89711B28398BAA3F0E3
:1058A000240844106418B2B9B49883F1A329557D33
:1058B000BAB5B1A38393F0002850F5B2B6AA83938A
:1058C00028547CF1B9A3829361BAA2DADEDFDB81CE
:1058D0009AB9AEF5606870F1DABAA2DFD9BAA2FA65
:1058E000B9A38292DB31BAA2D9BAA2F8DF85A4D0DB
:1058F000C1BBAD83C2C5C7B8A2DFDFDFBAA0DFDF9F
:10590000DFD8D8F1B8AAB38DB4980D355DB2B6BA68
:10591000AF8C96198F9FA70E161EB49AB8AA872C23
:10592000547CBAA4B08AB691325676B28494A4C894
:1059300008CDD8B8B4B0F19982A82D557D98A80E9D
:10594000161EA22C547C92A4F02C5078F184A898B6
:10595000C4CDFCD80DDBA8FC2DF3D9BAA6F8DABA71
:10596000A6DED8BAB2B68696A6D0F3C841DAA6C8E3
:10597000F8D8B0B4B882A892F52C548898F135D9EB
:10598000F418D8F1A2D0F8F9A884D9C7DFF8F883C1
:10599000C5DADF69DF83C1D8F40114F1A8824EA80B
:1059A00084F311D182F5D992289788F109F41C1C4F
:1059B000D884A8F3C0F9D1D99782F129F40DD8F38E
:1059C000F9F9D1D982F4C203D8DEDF1AD8F1A2FAEC
:1059D000F9A88498D9C7DFF8F8F883C7DADF69DF58
:1059E000F883C3D8F40114F198A8822EA884F31187
:1059F000D182F5D992509788F109F41CD884A8F384
:105A0000C0F8F9D1D99782F149F40DD8F3F9F9D159
:105A1000D982F4C403D8DEDFD8F1AD8898CCA809C8
:105A2000F9D98292A8F57CF1883ACF944A6E98DB36
:105A30006931DAADF2DEF9D88795A8F221D1DAA57D
:105A4000F9F417D9F1AE8ED0C0C3AE82C684C3A814
:105A50008595C8A588F2C0F1F4010EF18E9EA8C606
:105A60003E56F554F18872F40115F19845856EF5AE
:105A70008E9E0488F142985A8E9E068869F4011C15
:105A8000F1981E1108D0F504F11E970202983625F0
:105A9000DBF9D985A5F3C1DA85A5F3DFD88595A80B
:105AA000F309DAA5FAD88292A8F578F1881A849FCA
:105AB00026889821DAF41DF3D8879F39D1AFD9DF32
:105AC000DFFBF9F40CF3D8FAD0F8DAF9F9D0DFD922
:105AD000F9D8F40BD8F3879F39D1AFD9DFDFF41DA4
