:020000040800F2
:10000000781F0020990100083B260008D11B00083A
:1000100039260008BD0C0008712900080000000006
:1000200000000000000000000000000001010008C6
:10003000BF0C000800000000450100086926000808
:10004000B3010008B3010008B3010008B3010008C0
:10005000B3010008B3010008B3010008B3010008B0
:10006000B3010008B3010008B3010008B3010008A0
:10007000B3010008B3010008B3010008B301000890
:10008000B3010008B3010008B3010008B301000880
:10009000B3010008B3010008B3010008B301000870
:1000A000B3010008F5260008B3010008B3010008F9
:1000B000012700080D27000800000000B301000818
:1000C000B30100080000000000000000B3010008B8
:1000D00000000000B3010008B301000800000000A8
:1000E000B3010008B3010008B3010008DFF80CD029
:1000F00000F0AAFC0048004715440008781F0020C3
:10010000224B19680868B0E8F00F80F30988BFF344
:100110006F8F4FF0000080F311884EF00D0E704786
:100120000000000006480068006880F3088862B696
:1001300061B6BFF34F8FBFF36F8F00DF00BF00BF0B
:1001400008ED00E0EFF30980BFF36F8F0F4B1A68E3
:1001500020E9F00F106008B54FF0500080F31188CF
:10016000BFF34F8FBFF36F8F05F0ECFF4FF0000030
:1001700080F31188BDE8084019680868B0E8F00FFE
:1001800080F30988BFF36F8F704700BFF400002031
:10019000EFF3058070470000064880470648004797
:1001A000FEE7FEE7FEE7FEE7FEE7FEE7FEE7FEE727
:1001B000FEE7FEE7F3260008ED0000082DE9F04118
:1001C0000024061B254671F1000605DA01240027EC
:1001D000D0EB070067EB0101161E73F1000605DA8C
:1001E0000027D2EB0702012567EB030300F02FFB8A
:1001F00086460E4617469C46AC4204D00025D0EBFE
:10020000050E65EB010624B10020D2EB000760EB80
:10021000030C704631463A466346BDE8F081202A19
:1002200004DB203A21FA02F00021704721FA02F3A0
:10023000D040C2F12002914008431946704740EA7D
:1002400001039B0703D009E008C9121F08C0042A54
:10025000FAD203E011F8013B00F8013B521EF9D23B
:100260007047D2B201E000F8012B491EFBD2704763
:100270000022F6E710B513460A4604461946FFF772
:10028000F0FF204610BD30B504460020034600E0D4
:100290005B1C934203D2E05CCD5C401BF8D030BDC8
:1002A000F0B480EA0102D40F4200B2EB410F02D257
:1002B0000246084611464A0042D0C30DDDB2C1F3E2
:1002C000C752AD1A202D35DAC1F3160141F40002F0
:1002D00004B15242C5F1200602FA06F12A41104447
:1002E000B3EBD05F23D0C4B1012DA0EBC35009DC28
:1002F000F0BC4FF0004202EAC352DBB200F500004E
:1003000000F000BB400000F1807000EBC350A0F192
:10031000807040EAD170490009E0490841EAC071A3
:10032000A0EBC35000F50000400800EBC350F0BC48
:1003300000F0DFBA6142012202EB4101001BF6E747
:10034000F0BC704781F00041AAE780F00040A7E7C9
:1003500080EA010210B502F00043400022D04A00BA
:100360001FD0010E01EB1261C0F35600C2F356021A
:1003700040F4000042F40002A0FB022000047F3998
:10038000140400D0401C50EA124001D44000491E21
:10039000C2B20C0604EBD010401C4008802A02D0E8
:1003A00003E0002010BD20F00100002900DA002049
:1003B000184310BD30B480EA010202F0004530F06D
:1003C000004221F0004013D090B1C30DD40DC2F310
:1003D0001601C0F31600E41A41F4000140F40002D3
:1003E0007D34914201D3641C00E04900002C02DA04
:1003F00030BC002070474FF400000023914201D32D
:10040000891A034340084FEA4101F7D151B19142A3
:1004100002D14FF0004105E002D24FF0010101E0AE
:100420006FF0010103EBC450284430BC00F061BA06
:10043000420005D0C0F3C7525242914201DC002075
:10044000704700EBC15070472DE9FE4F804681EAAE
:100450000300C00F0C46009021F0004123F000453E
:10046000B8EB0200A94105D24046214690461C4601
:100470000B46024623F00040104347D0270DC7F338
:100480000A00C3F30A510290401A019040286BDA27
:10049000C3F3130040F4801B0098924620B1002360
:1004A000D2EB030A63EB0B0B01985946C0F14002F3
:1004B000504600F0FDF906460D4650465946019A51
:1004C00000F005FA10EB08006141002487EA1152A0
:1004D00084EAE7731A4340D0009A62B3019A012A72
:1004E0004FEA075215DC001B61EB02014FF000429E
:1004F00002EA0752CDE90042001C41F58011324664
:100500002B4600F03CFA03B0BDE8F08F4046214690
:10051000F9E7001B61EB0201001C41F58013001894
:100520005B412018A2F5001747EB030140EAD570A4
:10053000B6196D4111E06D084FEA360645EAC075FF
:100540004FEA0752001B61EB0201001C41F58011CC
:1005500049084FEA30000019514132462B4603B09A
:10056000BDE8F04F00F0FCB90098012240000023E4
:10057000D0EB020263EBE073009821464FEAE0748F
:10058000B8EB000061EB0401E9E783F000435BE7AF
:1005900081F0004158E72DE9FE4F81EA030404F0A1
:1005A000004421F0004100944FF0000B23F0004381
:1005B00050EA01045ED052EA03045BD0C3F30A544C
:1005C000C1F30A552C44A4F2F3340194A0FB025465
:1005D000C1F3130141F48011C3F3130343F48013F7
:1005E00001FB024400FB034E840A970A44EA81544B
:1005F00047EA8357A4FB076802958D0A05FB078528
:100600004FEA932C04FB0C542705029D4FEA065831
:1006100047EA1637B5EB08056EEB070C870E920E0E
:1006200047EA811742EA8312A7FB0201B6EB0B01EE
:1006300064EB00042B0D43EA0C335E1844EB1C50B2
:10064000DA465146E7FB0201C5F313044FEA0B33C8
:1006500043EA14534FEA0432019C43EA0603A4F12F
:100660000C040294009CCDE900B400F088F903B0BA
:10067000BDE8F08F00200146F9E72DE9F04D81EA51
:10068000030404F0004B21F0004514464FF0000A2B
:1006900023F0004150EA050220D054EA01021DD0A7
:1006A000C5F30A570246C5F31303C1F31300C1F3A0
:1006B0000A5640F4801543F48013A7EB0608101B7C
:1006C000D64608F2FD3873EB050002D308F10108A5
:1006D00001E092185B41B8F1000F03DA00200146F7
:1006E000BDE8F08D00204FF48011064684460EE0F0
:1006F000171B73EB050705D3121B63EB05030643BA
:100700004CEA010C49084FEA300092185B4150EA6C
:100710000107EDD152EA030012D082EA040083EA15
:100720000501084305D0101BAB4106D2012200236E
:1007300006E000224FF0004302E06FF00102531088
:100740001AEB06004CEB085110EB0A0041EB0B01D1
:10075000BDE8F04D00F004B9C10F80EAE070084434
:10076000CA079623002100F0CDB896230022114637
:1007700000F0C8B80EB5C10F80EAE0700844CA079F
:10078000002140F233438DE80E000A460B4600F08C
:10079000F6F803B000BD00F0004220F00040C10DAB
:1007A000C0F3160040F400007F2901DA00207047F2
:1007B000962903DCC1F19601C84001E096398840D2
:1007C000002AF4D04042704720F00040C10DC0F331
:1007D000160040F400007F2901DA002070479629B6
:1007E00003DCC1F19601C8407047963988407047D4
:1007F00000F0004230F000400AD0C10D01F56071F8
:10080000C0F3160042EA0151C20840071143704785
:1008100000200146704701F0004330B421F0004150
:1008200050EA010206D00A0DA2F56072C1F313016D
:10083000002A02DC30BC00207047440F44EAC104A7
:10084000C100E01830BC00EBC25000F052B82DE9F6
:10085000F05F0546002092469B4688460646814644
:1008600040241BE02846414647462246FFF7D7FC76
:1008700053465A46C01A914110D311461846224693
:1008800000F016F82D1A67EB01084F4622460120AA
:10089000002100F00DF817EB00094E41201EA4F1D5
:1008A0000104DFDC484631462A464346BDE8F09F56
:1008B000202A04DB203A00FA02F100207047914020
:1008C000C2F1200320FA03F3194390407047202A15
:1008D00006DBCB17203A41FA02F043EAE07306E068
:1008E00041FA02F3D040C2F1200291400843194678
:1008F00070470029A8BF7047401C490008BF20F07E
:100900000100704710B4B0FA80FC00FA0CF050EA15
:10091000010404BF10BC704749B1CCF1200421FA96
:1009200004F411FA0CF118BF012121430843A3EB91
:100930000C01CB1D4FEA00614FEA102042BF00209E
:1009400010BC704700EBC35010440029A4BF10BC7A
:100950007047401C490008BF20F0010010BC7047E0
:1009600010B5141E73F1000408DA401C41F10001B7
:1009700092185B411A4301D120F0010010BD2DE90E
:10098000F04D92469B4611B1B1FA81F202E0B0FA05
:1009900080F220329046FFF78BFF04460F4640EA74
:1009A0000A0041EA0B0153465A46084313D0114648
:1009B00053EA010019D0C8F140025046FFF72FFC5E
:1009C00005460E46504659464246FFF771FF08431A
:1009D00005D0012004E020463946BDE8F08D002016
:1009E000054346EAE0762C4337430A986305E40A58
:1009F000A0EB08000022FD0A44EA47540A3002D561
:100A000000200146E9E7010510196941DDE90845C3
:100A100000196941BDE8F04DA2E770B521F000432F
:100A200003430CD0C1F30A550024D5EB040564EB55
:100A30000403D617AD1AB34102DB0020014670BD96
:100A4000201841EB025170BD064C074D06E0E068EE
:100A500040F0010394E8070098471034AC42F6D305
:100A6000FFF748FB28790008487900082DE9F04D88
:100A700000231A461B1A8A4103DB00200146BDE809
:100A8000F08DC1F30A52C1F3130141F480154FF008
:100A9000000BD10702D100186D41521E00270446F9
:100AA00040F2FF11384601EB620A3E46804602469C
:100AB00000204FF48011FFF7B2FBC2197141BB183F
:100AC00046EB0100B4EB030C75EB000C04D3E41A05
:100AD00065EB000517460E46241908F101006D412B
:100AE00080463428E3DDF91946EB0600091BA841CE
:100AF00003D24FF0FF32134601E0002213461BEBF6
:100B0000070046EB0A51BDE8F04DFFF729BF70B56D
:100B10008C1810F8015B15F0070301D110F8013BA8
:100B20002A1106D110F8012B03E010F8016B01F82F
:100B3000016B5B1EF9D12B0705D40023521E0DD487
:100B400001F8013BFAE710F8013BCB1A921C03E0D5
:100B500013F8015B01F8015B521EF9D5A142D8D30D
:100B6000002070BD2DE9F04701F024FB4F4C04F14B
:100B70000E022070911E881E01F0EAFA04F10802AC
:100B80006070911E881E01F0FCFAA070B4F90A0092
:100B9000FFF7E2FD6064B4F90C00FFF7DDFDA0642F
:100BA000B4F90E00FFF7D8FDE064B4F90400FFF7D4
:100BB000D3FD2065B4F90600FFF7CEFD6065B4F9FA
:100BC0000800FFF7C9FDA065384A5C3202F1100148
:100BD000A1F1080003F068FC0028F5D1206D4FF06A
:100BE0008E45334E4FF06639A84208DAFFF700FE13
:100BF0004A463346FFF741FDFFF70DFE20652D4FB6
:100C0000DFF8B4800146A8420BDD3846FFF79AFBB7
:100C1000FFF7EEFD4A464346FFF72FFDFFF7FBFDCA
:100C20002065606DA84208DAFFF7E2FD4A463346C8
:100C3000FFF723FDFFF7EFFD60650146A8420BDDDE
:100C40003846FFF77FFBFFF7D3FD4A464346FFF7E1
:100C500014FDFFF7E0FD6065A06DA84208DAFFF71C
:100C6000C7FD4A463346FFF708FDFFF7D4FDA065F0
:100C70000146A8420BDD3846FFF764FBFFF7B8FDDD
:100C80004A464346FFF7F9FCFFF7C5FDA065216D15
:100C9000606E01F0CBF8616DE06E01F04DF9D4E9C2
:100CA0001610BDE8F04701F0CDB900001800002093
:100CB000666630C000FF7F4766663040FEE77047DB
:100CC00072B6FEE770B5044600F000F90546601CF8
:100CD00002D004480078044400F0F8F8401BA04219
:100CE000FAD370BD080000202DE9F84FDFF89C9181
:100CF000002409F1040A0AF1040B23460F270BF123
:100D0000040EBBE00125A5402A40AA4276D1DFF8B7
:100D100080C14E68A6EB0C0866452BD00DDC032E77
:100D200034D005DC36B3012E19D0022E2FD11BE0B2
:100D3000112E16D0122E2AD119E0B8F5881F19D01D
:100D400006DCB8F5803F15D0B8F5801F1FD111E043
:100D5000B8F5001F0ED0B8F5041F18D10AE0CB6813
:100D600015E0CB681B1D12E0CB6808330FE0CB68A1
:100D70000C330CE08B682BB1012B4FF0080303D030
:100D8000456104E0042302E0056100E00023FF2A3E
:100D900001D8064601E000F104064FEA840501D9B6
:100DA000A5F12005D6F8008007FA05FC28EA0C0812
:100DB00003FA05F548EA0508C6F800804D68ED001D
:100DC0005BD5344DAE6946F00106AE61AD6924F0E5
:100DD000030605F0010500952F4D06EB050CDCF828
:100DE0000850A607360F07FA06F825EA0805DFF8C7
:100DF000AC80404503D14FF0000810E03DE0DFF843
:100E0000A080404502D14FF0010808E0DFF894804F
:100E1000404502D14FF0020801E04FF0030808FA04
:100E200006F848EA0508CCF808804D68D9F8006053
:100E3000ED034D4601D5164300E096432E604D6804
:100E4000DAF80060AD03554601D5164300E096433D
:100E50002E604D68DBF80060ED025D4601D516435B
:100E600000E096432E604D68DEF80060AD027546E6
:100E700001D5164300E096432E60641C0A6832FADE
:100E800004F57FF43FAFBDE8F88F00000004014097
:100E90000000111000100240000001400008014055
:100EA000000C0140001001408068084000D0012083
:100EB0007047C26821EA02030A4043EA0241016125
:100EC00070470AB1016170470904FBE70148806877
:100ED0007047000008000020024881680278114431
:100EE0008160704708000020074810B5016841F094
:100EF00010010160032000F0A1F80F2000F006F8B7
:100F000000F04AF8002010BD0020024030B5054630
:100F10001C4887B0816941F400618161806906A93C
:100F200000F40060009001A800F030F900F05EF9D4
:100F30001549164AB0FBF1F11548491E026041609F
:100F400040F2E7320021C0E903218160816100F0B5
:100F500055FB040012D10E4800F07EFB04000DD1B9
:100F6000192000F03DF8102D07D200222946192043
:100F700000F044F80748056000E0012407B020466F
:100F800030BD00000010024040420F00002C014024
:100F9000480200200C0000200F4808B5816941F08C
:100FA00001018161816901F001010091C16941F094
:100FB0008051C161C069002200F0805000900F2173
:100FC000901E00F01BF80548416821F0E06141F0F7
:100FD0000071416008BD00000010024000000140A7
:100FE000002809DB00F01F02012191404009800028
:100FF00000F1E020C0F8001170470000F0B40E4B83
:101000001B680C46C3F30223C3F10705042D00D966
:101010000425191D072901D2002300E0DB1E01264B
:1010200006FA05F1491E214099409E40761E164061
:101030003143F0BC01F0C2BC0CED00E0064900F009
:10104000070208684FF6FF03184040EA0220034AEF
:1010500010430860704700000CED00E00000FA0546
:101060002DE9F0470F46050061D0434E306800F08F
:101070000700B84209D2306820F0070038433060DA
:10108000306800F00700B84251D128683B4C810716
:1010900012D5400703D5606840F4E06060602878AE
:1010A000000703D5606840F4605060606068A9681C
:1010B00020F0F000084360602878C00728D06868F6
:1010C000012810D02168022810D0890700292EDAC3
:1010D000616821F0030101436160FFF7F7FE80467C
:1010E00041F288390DE021688903EFE78901EDE7D6
:1010F000FFF7ECFEA0EB0801494502D90320BDE84B
:10110000F0876068696800F00C00B0EB810FEFD1E8
:10111000306800F00700B8420BD9306820F00700B3
:1011200038433060306800F00700B84201D0012039
:10113000E5E72878400705D56068E96820F4E060B5
:10114000084360602878000706D56068296920F4A4
:10115000605040EAC100606000F058F86168084AD9
:10116000C1F30311515CC840064908600648006895
:10117000FFF7CCFE0020C2E7002002400010024032
:101180006C6B0008140000200C0000200F2202608D
:101190000C4A536803F003034360536803F0F00301
:1011A0008360536803F4E063C36052684FF4E06304
:1011B00003EAD20202610448006800F007000860F8
:1011C000704700000010024000200240044805491A
:1011D00000684968044AC1F30221515CC840704765
:1011E00014000020001002407C6B000804480549F0
:1011F00000684968044AC1F3C221515CC840704785
:1012000014000020001002407C6B000812A185B081
:101210000FC98DE80F0014A0144A006804905168AB
:10122000134801F00C03042B10D0082B0ED1C1F38E
:101230008343C9031DF803000AD5516804AAC1F30A
:101240004041515C0A4A5043B0FBF1F005B0704791
:1012500008494843FAE700000203040506070809A5
:101260000A0B0C0D0E0F10100102000000100240BE
:1012700000127A0000093D002DE9F84F040070D0FB
:101280002078C04DC00749D06868C0F381000128AC
:1012900007D06868C0F38100022809D16868C003DC
:1012A00006D52868800339D560680028E7D035E086
:1012B0006068B0F5803F0BD010B1B0F5A02F11D011
:1012C000286820F480302860286820F4802002E01C
:1012D000286840F480302860606890B1FFF7F6FD20
:1012E00006460AE0286840F480202860F0E700BF46
:1012F000FFF7ECFD801B642873D828688003F7D5BE
:101300000CE0FFF7E3FD064605E000BFFFF7DEFD5A
:10131000801B6428F0D828688003F7D420789A4E80
:1013200080074FF001094FF0000839D5686810F0C8
:101330000C0F07D06868C0F38100022809D16868E3
:10134000C00306D42868800714D52069012808D175
:1013500010E02069B0B1C6F80090FFF7B7FD07466E
:1013600005E00AE1FFF7B2FDC01B0228C4D82868D7
:101370008007F7D52868616920F0F80040EAC100CD
:1013800028600DE0C6F80080FFF7A0FD074604E0E6
:10139000FFF79CFDC01B022823D828688007F7D4DC
:1013A000207800072CD57948A169D9B1C0F8009000
:1013B000FFF78CFD074604E0FFF788FDC01B0228FD
:1013C0000FD8686A8007F7D571484FF4FA51006862
:1013D000B0FBF1F0009000BF0098411E0091FAD2DE
:1013E0000EE080E0C0F80080FFF770FD074604E0E3
:1013F000FFF76CFDC01B022875D8686A8007F7D418
:101400002078400760D5E8690027C00008D4E86963
:1014100040F08050E861E869012700F080500090BA
:101420005C480168C90513D40168834641F48071A2
:101430000160FFF74BFD824606E000BFFFF746FD67
:10144000A0EB0A0064284ED8DBF80000C005F5D5F3
:10145000E06801280AD008B1052813D0286A20F0D6
:1014600001002862286A20F0040002E0286A40F0A7
:1014700001002862E06841F2883B98B1FFF726FD41
:1014800082460BE0286A40F004002862EEE700BFC5
:10149000FFF71CFDA0EB0A0159455AD8286A8007BE
:1014A000F6D50CE0FFF712FD824605E0FFF70EFDD2
:1014B000A0EB0A0159454CD8286A8007F6D41FB121
:1014C000E86920F08050E861E06988B36968C1F399
:1014D0008101022944D00228C6F8608004D0FFF7B9
:1014E000F5FC044638E034E0FFF7F0FC074604E082
:1014F000FFF7ECFCC01B02282BD828688001F7D42A
:10150000206AB0F5803F05D16868A16820F40030FA
:1015100008436860D4E908010843696821F474113C
:1015200008436860C6F86090FFF7D0FC044606E008
:1015300025E000BFFFF7CAFC001B022809D8286875
:101540008001F7D51BE000BFFFF7C0FC001B02289D
:1015500002D90320BDE8F88F28688001F4D40EE09A
:101560000128F7D06868226A00F48031914204D1E2
:10157000616A00F47010884201D00120EAE700207F
:10158000E8E70000001002400000424280044242AE
:1015900014000020007000407047704770B590F84C
:1015A0003C20012A23D0012480F83C40022280F80C
:1015B0003D2003685A689D6822F070060A6832432D
:1015C0005A600C4B02689A4205D0B2F1804F02D0AB
:1015D000094B9A4204D1496825F080031943916070
:1015E00080F83D40002180F83C10084670BD022084
:1015F00070BD0000002C01400004004010B5040044
:1016000003D094F83D0010B107E0012010BD002088
:1016100084F83C00204600F01EF8022084F83D00CB
:10162000211D206801F078F8012084F8460084F834
:101630003E0084F83F0084F8400084F8410084F8BC
:10164000420084F8430084F8440084F8450084F89C
:101650003D00002010BD704790F83D10012901D0D9
:1016600001207047022180F83D100168CA6842F0ED
:101670000102CA6000680A49884205D0B0F1804F73
:1016800002D00849884204D1816801F00701062987
:1016900003D0016841F001010160002070470000A3
:1016A000002C0140000400402DE9F0410D460400EB
:1016B00003D094F83D0018B108E00120BDE8F081A6
:1016C000002084F83C00204600F040F8022084F816
:1016D0003D002068816844F2070291438160211D2A
:1016E000206801F019F8226890689169166A2B68E1
:1016F000AF69034340F20330814341EA0721A86800
:10170000EF6908434FF6FC418843E96840EA072047
:10171000014328692F6A000140EA073008436968DD
:101720006D6926F0220646EA051529439360226872
:10173000906154F8460B0162012004F81F09E0751E
:101740002076E0762077A0750020B7E700B585B059
:101750000021009101910291039100681149884292
:101760001ED11148C16941F00201C161C16901F096
:1017700002010491816941F0040181618069694637
:1017800000F004000490C02000900848FFF7ACFA75
:10179000002205211D20FFF731FC1D20FFF720FC52
:1017A00005B000BD000400400010024000080140E8
:1017B000704770B50446006801694FF00005C943E1
:1017C000890715D4C168C943890711D4E91E01618D
:1017D00001202077206880698007204602D0FFF72B
:1017E000E7FF04E000F0BCF8204600F07BF9257725
:1017F00020680169C943490717D4C168C94349072B
:1018000013D46FF004010161022020772068806901
:1018100010F4407F204602D0FFF7CAFF04E000F03A
:101820009FF8204600F05EF9257720680169C943DA
:10183000090716D4C168C943090712D46FF008011B
:101840000161042020772068C0698007204602D00B
:10185000FFF7AEFF04E000F083F8204600F042F905
:10186000257720680169C943C90617D4C168C943EF
:10187000C90613D46FF01001016108202077206899
:10188000C06910F4407F204602D0FFF791FF04E0CA
:1018900000F066F8204600F025F9257720680169F8
:1018A000C943C90708D1C168C943C90704D1891E02
:1018B0000161204600F018F920680169C943090652
:1018C00009D4C168C943090605D46FF080010161DC
:1018D0002046FFF761FE20680169C943490609D423
:1018E000C168C943490605D46FF040010161204633
:1018F00000F004F920680169C94389060BD4C16866
:10190000C943890607D46FF0200101612046BDE874
:101910007040FFF742BE70BD00B585B00021009158
:101920000191029103910068B0F1804F11D10A48F2
:10193000816941F0040181618069694600F0040019
:101940000490082000900220019003900348FFF7C4
:10195000CBF905B000BD00000010024000080140B6
:10196000704770B5044690F83C000D4601280AD037
:10197000012084F83C0042B1042A18D0082A2AD059
:101980000C2A4DD139E0022070BD206800F0F2FE33
:101990002068816941F0080181612068816921F036
:1019A00004018161206881692A69114311E020687E
:1019B00000F008FF2068816941F4006181612068BE
:1019C000816921F480618161206881692A6941EA25
:1019D0000221816124E0206800F020FF2068C169B5
:1019E00041F00801C1612068C16921F00401C161B1
:1019F0002068C1692A69114311E0206800F03AFFAC
:101A00002068C16941F40061C1612068C16921F4A5
:101A10008061C1612068C1692A6941EA0221C1610E
:101A2000002084F83C0070BD10B5040003D094F889
:101A30003D0010B107E0012010BD002084F83C00FB
:101A4000204600F01FF8022084F83D00211D206888
:101A500000F062FE012084F8460084F83E0084F81D
:101A60003F0084F8400084F8410084F8420084F884
:101A7000430084F8440084F8450084F83D000020C9
:101A800010BD000000B585B00021009101910291C8
:101A900003910068B0F1804F1ED11048C16941F038
:101AA0000101C161C16901F001010491816941F045
:101AB000040181618069694600F0040004900320FC
:101AC00000900748FFF710F9002205211C20FFF7BE
:101AD00095FA1C20FFF784FA05B000BD0010024003
:101AE000000801407047000000680349884201D1A6
:101AF000FFF7F2B970470000002C0140704770B545
:101B0000040004D094F83D00002510B106E0012047
:101B100070BD84F83C50204600F022F8242084F860
:101B20003D002068C16821F40051C160204600F0EA
:101B3000C3FE2068016921F4904101612068416978
:101B400021F02A0141612068C16841F40051C1605F
:101B50002564202084F83D0084F83E00002070BDFC
:101B600030B585B000240094019402940394006879
:101B70001449884224D11448816941F4804181612B
:101B8000816901F480410491816941F0040181611E
:101B900080690E4D00F0040004904FF40070009036
:101BA000022001900320039069462846FFF79CF825
:101BB0002815CDE90004694628460294FFF794F8F9
:101BC00005B030BD0038014000100240000801405F
:101BD000FEE7000070B5104D4FF40074002221465E
:101BE0002846FFF76EF900F019F801221602314677
:101BF0002846FFF766F900F011F800223146284622
:101C0000FFF75FF900F00AF821462846BDE870406A
:101C10000122FFF756B90000000C01400020401CD3
:101C2000C0B20A28FBD370470C4800B5816985B063
:101C300041F0080181618069694600F00800049064
:101C40004FF440700090032003901120019004484D
:101C5000FFF74AF800F0AAF805B000BD00100240F6
:101C6000000C014070B50C4C012251022046FFF7D8
:101C700028F9FFF7D3FF0122150229462046FFF776
:101C800020F9FFF7CBFF002229462046FFF719F97C
:101C9000BDE87040FFF7C2BF000C01402DE9F047DE
:101CA0000024164E804625464FF400794FF4807785
:101CB0006006040E012239463046FFF702F9FFF7AD
:101CC000ADFF49463046FFF7EFF808B1641CE4B2B7
:101CD000002239463046FFF7F4F8FFF79FFF6D1CEE
:101CE000EDB2082DE4D3B8F1000F04D0FFF772FF76
:101CF0002046BDE8F087FFF7B5FFF9E7000C01408B
:101D00002DE9F041174E054600244FF480774FF43B
:101D10000078280601D5012200E000224146304625
:101D2000FFF7CFF8FFF77AFF012239463046FFF779
:101D3000C8F8FFF773FF002239463046FFF7C1F8B5
:101D4000072C04D1012241463046FFF7BAF8680655
:101D5000050EFFF763FF641CE4B2082CD9D3BDE87D
:101D6000F0810000000C014070B501220E4D5402BC
:101D700021462846FFF7A5F80122160231462846DB
:101D8000FFF79FF8FFF74AFF002221462846FFF79A
:101D900098F8FFF743FF002231462846FFF791F8F5
:101DA000BDE87040FFF73ABF000C014070B50B4D25
:101DB0004FF40074002221462846FFF782F80122E2
:101DC00011022846FFF77DF8FFF728FF2146284635
:101DD000BDE870400122FFF774B80000000C01401C
:101DE00070B50122104D540221462846FFF769F8CC
:101DF000FFF714FF0122160231462846FFF761F86B
:101E0000FFF70CFF21462846FFF74EF808B10124E2
:101E100000E00024002231462846FFF752F8FFF781
:101E2000FDFE204670BD0000000C01402DE9F34F7F
:101E3000404C83B00846216A0091FEF783FAE169BD
:101E40008846FEF785FAA16EFEF72AFA04F17405BA
:101E50008346D5E9017949463846FEF721FA4146DD
:101E6000FEF776FA064628682169FEF719FA314628
:101E7000FEF768FAEE68824641463046FEF768FA99
:101E800039460190FEF761FA804649460198FEF70F
:101E90005CFA814630466169FEF702FA01905046CD
:101EA000A169FEF7FDF9064631465046FEF782FA73
:101EB000074631464846FEF77DFA064659460398DE
:101EC000FEF740FA3946FEF743FA5946FEF7E8F9BD
:101ED0000146A0660398FEF735FA3146FEF738FA58
:101EE0000099FEF7DDF9206251463846FEF730FAD8
:101EF0005146FEF72AFA0446286041463846FEF766
:101F000027FA4146FEF721FA074668602146304627
:101F1000FEF71EFA4946FEF718FAA8603946304621
:101F2000FEF716FA0199FEF710FAE86005B0BDE871
:101F3000F08F0000180000202DE9F34F404C83B0D3
:101F40000846E16A0091FEF7FDF9E1698846FEF76F
:101F5000FFF9216FFEF7A4F904F184058346D5E962
:101F6000017949463846FEF79BF94146FEF7F0F9FC
:101F7000064628682169FEF793F93146FEF7E2F933
:101F8000EE68824641463046FEF7E2F93946019056
:101F9000FEF7DBF9804649460198FEF7D6F98146FF
:101FA00030466169FEF77CF901905046A169FEF761
:101FB00077F9064631465046FEF7FCF907463146AA
:101FC0004846FEF7F7F9064659460398FEF7BAF970
:101FD0003946FEF7BDF95946FEF762F9014620671A
:101FE0000398FEF7AFF93146FEF7B2F90099FEF714
:101FF00057F9E06251463846FEF7AAF95146FEF716
:10200000A4F90446286041463846FEF7A1F9414646
:10201000FEF79BF90746686021463046FEF798F9BF
:102020004946FEF792F9A86039463046FEF790F926
:102030000199FEF78AF9E86005B0BDE8F08F00006D
:10204000180000202DE9F34F404C83B00846A16BE7
:102050000191FEF777F9E1698846FEF779F9216F7A
:10206000FEF71EF904F194052067D5E90179494688
:102070003846FEF715F94146FEF76AF90646286824
:102080002169FEF70DF93146FEF75CF9EE688246EC
:1020900041463046FEF75CF983463946FEF755F96E
:1020A000804658464946FEF750F9814630466169F8
:1020B000FEF7F6F883465046A169FEF7F1F80646AA
:1020C00031465046FEF776F9074631464846FEF758
:1020D00071F90646216E00910398FEF733F93946EF
:1020E000FEF736F90099FEF7DBF801462066039803
:1020F000FEF728F93146FEF72BF90199FEF7D0F8E3
:10210000A06351463846FEF723F95146FEF71DF904
:102110000446286041463846FEF71AF94146FEF764
:1021200014F90746686021463046FEF711F9494622
:10213000FEF70BF9A86039463046FEF709F9594613
:10214000FEF703F9E86005B0BDE8F08F1800002045
:102150007CB514460D4606466B4606223B21682098
:1021600000F0A8F800280BD1BDF8001049BA318062
:10217000BDF8021049BA2980BDF8041049BA21807F
:102180007CBD7CB514460D4606466B4606224321AF
:10219000682000F08FF800280BD1BDF8001049BA74
:1021A0003180BDF8021049BA2980BDF8041049BA3F
:1021B00021807CBD08B56B4602224121682000F0D9
:1021C00079F8BDF8000040BA00B2FEF7D3FA002259
:1021D000074BFEF752FA074A074BFEF735F9FEF7B1
:1021E0001AFB0649FEF7B4F8FEF7D5FA00B208BDAF
:1021F00000407540A4703D0AD74342400000C842E9
:1022000010B5FFF711FD80216B2000F0C2F86420AB
:10221000FEF758FD00216B2000F0BBF8032000F012
:1022200084F8002000F07CF8322000F09BF80021B8
:10223000382000F0AEF800216A2000F0AAF8002152
:10224000232000F0A6F88021372000F0A2F87520A6
:1022500000F013F8682801D0012010BD01216B2087
:1022600000F097F800216C2000F093F8322000F085
:1022700079F802F0E7F9002010BD10B50446FFF729
:1022800073FDD020FFF73CFDFFF7AAFD2046FFF7C6
:1022900037FDFFF7A5FDFFF767FDD120FFF730FD04
:1022A000FFF79EFD0020FFF7F9FC0446FFF77EFDD7
:1022B000204610BD2DE9F0411D4614460F46064646
:1022C000FFF752FD7006000EFFF71AFDFFF788FDBD
:1022D00020B1FFF76BFD0120BDE8F0813846FFF724
:1022E0000FFDFFF77DFDFFF73FFD012000EB4600EE
:1022F000C0B2FFF705FDFFF773FD09E0012C0DD01B
:102300005FF00100FFF7CAFC641E05F8010BE4B2A0
:10231000002CF3D1FFF74AFD0020DDE70020F1E7B4
:10232000C006010E1C2000F034B8C006010E1B20B0
:1023300000F02FB8BC2801D3012110E0622801D39E
:1023400002210CE02A2801D3032108E0142801D33C
:10235000042104E00A2801D3052100E006211A2007
:1023600000F017B810B504464FF47A70844201D9D2
:10237000044602E0042C00D20424B0FBF4F0401E1A
:10238000C1B2192000F005F86008BDE81040FFF761
:10239000D1BF70B50C460546FFF7E6FCD020FFF72D
:1023A000AFFCFFF71DFD50B92846FFF7A9FCFFF76A
:1023B00017FD2046FFF7A4FCFFF712FD18B1FFF749
:1023C000F5FC012070BDFFF7F1FC002070BD2DE988
:1023D000F0411E4615460F460446FFF7C5FC600651
:1023E000000EFFF78DFCFFF7FBFC60B93846FFF7E6
:1023F00087FCFFF7F5FC00240CE0305DFFF780FC64
:10240000FFF7EEFC20B1FFF7D1FC0120BDE8F08121
:10241000641CE4B2AC42F0D3FFF7C8FC0020F5E73F
:1024200010B5074A0021074802F0A4FF064C044AF1
:10243000002120602432054802F09CFF606010BD3E
:10244000246B00083D2600080000002045260008F7
:102450002DE9F04186B000242548009401940294AF
:102460000394816941F010018161816901F01001DB
:102470000491816941F020018161816901F02001AD
:102480000491816941F004018161816901F00401D5
:102490000491816941F0080181618069154F00F064
:1024A00008004FF400550490002229463846FEF7F4
:1024B00008FDDFF844804FF4407600223146404664
:1024C000FEF7FFFC00950125CDE901540224694681
:1024D00038460394FEF708FC112000960394CDE9DA
:1024E000010569464046FEF7FFFB06B0BDE8F081F6
:1024F0000010024000100140000C014010B592B0E5
:1025000024216846FDF7B4FE002410941C2109A87C
:102510001194FDF7ADFE1E484FF08041016063212C
:10252000C0E9011440F2CF21C0E903148461FFF730
:102530007BFA08B1FEF7C4FB0120CDE90004CDE928
:1025400002040494CDE905400794694610480894B4
:10255000FFF7AAF808B1FEF7B3FB109410A90C48D6
:102560001194FFF71BF808B1FEF7AAFB6020CDE934
:1025700009040B940C2209A905480D94FFF7F1F901
:1025800008B1FEF79DFB0248FFF7C6F912B010BD77
:102590007401002010B58CB024216846FDF768FE58
:1025A00000241648099414490A9401606321C0E983
:1025B000011440F2CF21C0E9031484610120CDE968
:1025C0000004CDE902040494CDE90540079469466E
:1025D0000A480894FFF768F808B1FEF771FB099400
:1025E00009A906480A94FEF7D9FF002801D0FEF792
:1025F00067FB0CB010BD000000040040BC010020CF
:102600000C4810B50A4901604FF4E13141600021E6
:1026100081600C22C160C0E904128161C161FFF7D1
:102620006EFA002803D0BDE81040FEF749BB10BD8C
:102630000038014004020020FEE7FEE7012002F01E
:1026400043FEFBE7074E4FF4FA744FF40055204663
:1026500002F03AFEFEF786FA29463046FEF729FCDC
:10266000F5E700000010014010B5502080F31188FC
:10267000BFF34F8FBFF36F8F04F0B2F818B1044966
:102680004FF080500860002080F3118810BD0000DA
:1026900004ED00E030B58FB028216846FDF7E8FD75
:1026A00014210AA8FDF7E4FD01210804CDE900107A
:1026B0000024029402250491CDE907504FF4E01064
:1026C00009906846FEF7D8FD08B172B6FEE70F2004
:1026D000CDE90A054FF48060CDE90C4002210AA83B
:1026E0000E94FEF7BDFC002801D072B6FEE70FB0D5
:1026F00030BD70470148FFF75CB800004802002079
:102700000148FFF756B80000740100200148FFF7A8
:1027100050B80000BC01002070B50268134B144C87
:102720004FF08046984203D0B04201D0A04203D17E
:1027300022F070054A682A43984203D0B04201D083
:10274000A04203D122F44074CA6822434C6922F0AB
:102750008002224302608A68C2620A6882629842EA
:1027600001D1096901630121416170BD002C014063
:102770000004004030B5026A22F001020262026ADF
:102780004368846924F073050C682C4322F0020529
:102790008A682A430A4DA8420BD122F00805CA686C
:1027A00023F440732A434D6922F004021D438B69D0
:1027B0002B434360846149684163026230BD00007D
:1027C000002C014030B5026A22F010020262026A57
:1027D000436884690D6824F4E64444EA05248D685E
:1027E00022F0200242EA05120B4DA8420ED1CD681C
:1027F00022F0800242EA05124D6923F4406343EA65
:1028000085038D6922F0400243EA850343608461B9
:1028100049688163026230BD002C014030B5026A14
:1028200022F480720262036A4268C46923F400736E
:1028300024F073050C682C438D6843EA05230C4D86
:10284000A8420ED1CD6823F4006343EA05234D6905
:1028500022F4405242EA05128D6923F4806342EA71
:1028600005124260C4614968C163036230BD000063
:10287000002C014030B5026A22F480520262046AE0
:102880004268C3690D6823F4E64343EA05238D6873
:1028900024F4005444EA0534064DA84204D14D699D
:1028A00022F4804242EA85124260C36149680164B1
:1028B000046230BD002C014070B504460068016917
:1028C000E26821F44051114301612169A068084385
:1028D000616908432168CA6841F20C639A43024364
:1028E000CA6020684169A26921F4407111434161C5
:1028F0001E492068884202D1FEF778FC01E0FEF70D
:1029000065FC00EBC00101EB0012606864218000EF
:10291000B2FBF0F3B3FBF1F36FF018067343B2FBB5
:10292000F0F5B2FBF0F605EB8305322303EB05155A
:10293000B5FBF1F5B6FBF1F605F0F00505EB061574
:10294000B2FBF0F6B2FBF0F0B0FBF1F06FF0180262
:10295000504306EB800003EB0010B0FBF1F0216860
:1029600000F00F002844886070BD0000003801406E
:10297000FEE700000FB4054B10B503A9044A029806
:1029800000F0AAF810BC5DF814FB0000013F00083D
:102990006C010020490050EAC12018BF04204A0DF4
:1029A00018BF40F0010040F2FF72B2EB515F08BF68
:1029B00040F00200012808BF052070470907090EF2
:1029C000002804DB00F1E02080F80014704700F0DC
:1029D0000F0000F1E02080F8141D70472DE9F04150
:1029E0004F1E00EBC7010446D1E9000115461E4603
:1029F00037F006020DD02A463346FDF7CCFD7F1E88
:102A000004EBC703D3E90023FDF71EFD37F00602F0
:102A1000F1D1022F25D0042F13D0062F18BFBDE807
:102A2000F0812A463346FDF7B6FDD4E90A23FDF7C7
:102A30000BFD2A463346FDF7AEFDD4E90823FDF72A
:102A400003FD2A463346FDF7A6FDD4E90623FDF72C
:102A5000FBFC2A463346FDF79EFDD4E90423FDF72F
:102A6000F3FC2A463346FDF796FDD4E90223FDF731
:102A7000EBFC2A463346FDF78EFDD4E90023BDE882
:102A8000F041FDF7E1BC0122FDF7C7BFFDF7DCBC5B
:102A90000022134610461146FDF7EFBD024A002002
:102AA0001107FDF7BABF000001FDFFFF02E008C8F3
:102AB000121F08C1002AFAD170477047002001E0B8
:102AC00001C1121F002AFBD17047000001490860B4
:102AD00070470000700100202DE9FF4F8DB00F46B8
:102AE0000546002606E025280BD0DDE90F129047A9
:102AF0006D1C761C28780028F5D111B03046BDE851
:102B0000F08F0024A246A1460122EC4900E00443D4
:102B100015F8013F203B02FA03F00842F7D128786C
:102B20002A2810D06FF02F022878A0F1300109294F
:102B300014D80AEB8A0102EB410144F0020400EBD5
:102B4000010A6D1CF0E701CF5FEA000A03D544F4E7
:102B50000054CAF1000A44F002046D1C28782E28A3
:102B600017D115F8010F44F004042A280ED06FF095
:102B70002F022878A0F1300109290AD809EB890130
:102B800002EB410100EB01096D1CF2E757F8049BD1
:102B90006D1C28786C280FD006DC4C2817D06828CC
:102BA0000DD06A2814D104E0742810D07A280FD1EF
:102BB0000DE044F400140AE044F4801401E044F40D
:102BC00040146978814202D104F580146D1C6D1C9B
:102BD0002A786E2A1FD00CDC632A31D004DC002A4C
:102BE0008BD0582A11D1A3E0642A68D0692A0CD16D
:102BF00065E0732A2ED004DC6F2A73D0702A04D1CA
:102C00009BE0752A6FD0782A6ED01046DDE90F124E
:102C10009047761C50E1C4F30250022806D00328E6
:102C200009D0042801CF09D0066045E101CFF11792
:102C3000C0E9006140E101CF06803DE106703BE163
:102C400017F8040B8DF8000000208DF80100EB460A
:102C5000012003E057F804BB4FF0FF3061074FF04D
:102C6000000102D40DE008F10101884649450FDA60
:102C70008045F8DB1BF808100029F4D108E008F1C2
:102C8000010188468142FADB1BF808100029F6D1C1
:102C9000DDE90F23AAEB08008146214600F036F952
:102CA000304400EB080604E0DDE90F121BF8010BCD
:102CB0009047B8F10108F7D221464846F7E00A21CB
:102CC000C4F302534FF0000B0891022B04D001CF44
:102CD000C117032B09D00AE0FF1D27F00707F7E80B
:102CE000020108E032E01FE020E000B2C117042B2F
:102CF00001D140B2C117031E71F1000307DA4FF092
:102D0000000CD0EB0C006CEB01012D2302E023053D
:102D100004D52B238DF82430012303E0E30701D0F1
:102D20002023F7E7984658E00A2110E010210EE032
:102D300010204FF0000B08900CE010214FF0000B1A
:102D400044F004044FF00809089103E008214FF013
:102D5000000B0891C4F30253022B04D001CF0021D1
:102D6000032B06D006E0FF1D27F00707F7E8020156
:102D700003E080B2042B00D1C0B24FF0000823075B
:102D80002BD5702A07D0DDF820C08CF0100C5CEA3F
:102D90000B0C05D00EE040238DF82430012308E011
:102DA00050EA010306D030238DF824308DF8252019
:102DB00002239846DDF820C08CF0080C5CEA0B0C6E
:102DC0000BD150EA010301D1630706D530238DF8FA
:102DD00024304FF00108A9F10109582A04D038A283
:102DE0000B9208AA0A920BE03AA2F9E75B46089A0E
:102DF000FDF72DFD0B9B9B5C0A9A521E0A921370E5
:102E000050EA0102F2D10A98ADEB000000F1200B6C
:102E1000600702D524F4803401E04FF00109D94560
:102E200002DDA9EB0B0000E0002000EB0B014144A8
:102E30000890AAEB010AE00306D4DDE90F2321463E
:102E4000504600F063F806444FF0000908E009A975
:102E500011F80900DDE90F12904709F10109761C0C
:102E6000C145F4DBE0030CD5DDE90F2321465046D4
:102E700000F04CF8064404E0DDE90F1230209047E2
:102E8000761C0899481E08900029F5DC08E00A988D
:102E90000A990078491C0A91DDE90F129047761CC7
:102EA000BBF10001ABF1010BF1DC21465046DDE93D
:102EB0000F2300F019F806446D1C1BE609280100D9
:102EC00030313233343536373839616263646566A0
:102ED0000000000030313233343536373839414262
:102EE00043444546000000002DE9F041044600251A
:102EF0001E461746880404D405E039462020B04712
:102F00006D1C641EF9D52846BDE8F0812DE9F0411D
:102F1000044600251E469046C80301D5302700E030
:102F20002027880404D505E041463846B0476D1C8B
:102F3000641EF9D52846BDE8F08100002DE9FE4F5A
:102F400007460E460025684600F0E4FF00246FF0B7
:102F50000F0AE8464FF0010957F8240056F82410EC
:102F6000401A00D54042FDF7F7FB5146FDF760FAE5
:102F700058F8241011F0FF4F0BD0FDF71BFA4FF05B
:102F80007E51FDF7DFF90A4920F00040884205DC58
:102F900007E0084908440849884202D309FA04F0C6
:102FA0000543641C032CD7DB2846BDE8FE8F0000D8
:102FB000295C0F3E666666C19A99D9002DE9F04DED
:102FC0008D4F21F0004A86B005460C46BA452ADBF3
:102FD000AAEB070028430AD08848824501DC1AD1B1
:102FE000CDB106B02846BDE8F04DFFF74CBD844A90
:102FF000844B2846FDF7CFFA07460E46824A834B9C
:1030000028462146FDF7C7FA06B03A463346BDE8E2
:10301000F04DFDF719BA0120FFF758FD06B0BDE8E5
:10302000F04DFFF735BD7A48824542DABAF1795F53
:103030000BDA2846FFF7AEFC042808BFFFF72EFD89
:10304000284606B02146BDE8F08D2A460B461046BC
:10305000FDF7A1FA834602466E480E460B4606214E
:103060007844FFF7BBFC5A463346FDF794FA804696
:1030700069488A465A46334604217844FFF7AEFC35
:103080005A463346FDF787FA00223B46FDF7DCF946
:1030900002460B4640465146FDF7EFFA2A462346C4
:1030A000FDF779FA06B02A462346BDE8F04DFDF754
:1030B000CBB9284624F0004100223D463B46FDF7AF
:1030C00067FA4FF0FF32FDF7A8FC06460246534868
:1030D0000F460B4606217844FFF780FC32463B46FC
:1030E000FDF759FACDE900014D4832463B4604212F
:1030F0007844FFF773FC32463B46FDF74CFA00225A
:103100002B46FDF7A1F9834602913046394602F07D
:103110000FFE804643480D46504517DCDDE90001AF
:103120005A46029BFDF7A9FA42462B46FDF733FAB1
:1031300042462B46FDF788F90122FDF76EFC304A26
:10314000304BFDF722FA304A304B4CE04FF0000A8A
:1031500052460B464046FDF777F9CDE9031052463B
:103160002B4610461946FDF716FA32463B46FDF748
:103170000FFADDE90332FDF780FA06460F46DDE976
:1031800000015A46029BFDF778FA8346009101221E
:1031900030463946FDF741FC194A1A4BFDF7F8F95C
:1031A00006460F46012240462946FDF736FC5A46A0
:1031B000009BFDF7F0F932463B46FDF7E6F906467F
:1031C0000F46012250462946FDF727FC0E4DDFF839
:1031D00058802A464346FDF7DBF932463B46FDF769
:1031E000D7F92A464346FDF7D3F9002CD8BF81F022
:1031F000004106B0BDE8F08D0000F03F0000F07F18
:10320000075C143326A6913C182D4454FB21F93F4A
:103210000000E03F6C47000082470000F6460000D7
:103220000C4700003333EF3FFB21E93F2DE9F84F16
:1032300004460D4621F0004000917349814211DCA3
:103240007249884201DC06D12CB120462946BDE8EE
:10325000F84FFFF718BC6E48002DCCBF6D496E4982
:10326000BDE8F88F6D49814211DD6D498142D8BFBB
:103270004FF0FF366DDD20462946FFF78BFB042813
:1032800008BFFFF70BFC20462946BDE8F88F6549CB
:10329000654F25F00045814233DD6449814219DDE7
:1032A000002632464FF0804320462946FDF7CCF8F1
:1032B00080468A46012220462946FDF7AEFB0022C1
:1032C0003B46FDF762F942465346FDF7D6F9044600
:1032D0000D463EE001260022BA463B4620462946DE
:1032E000FDF7B2F880460F46002253462046294695
:1032F000FDF74BF942463B46FDF7BFF904460D4644
:1033000027E04B4981421BDDDFF828A1022600227D
:10331000534620462946FDF73EF900223B46FDF77D
:1033200093F880460F460022534620462946FDF773
:103330002CF942463B46FDF7A0F904460D4608E04D
:10334000032622462B4600203B49FDF796F904460A
:103350000D4622462B4610461946FDF71CF98B46B2
:10336000824602460B46FDF716F9074602463348E9
:1033700088460B4606217844FFF730FB52465B46F1
:10338000FDF709F982462E488B463A464346052109
:103390007844FFF723FB3A464346FDF7FCF8024624
:1033A0000B46002E504659460CDAFDF74DF82246E2
:1033B0002B46FDF7F0F801B022462B46BDE8F04F52
:1033C000FDF7E6B8FDF740F822462B46FDF7E3F897
:1033D0001C4A7A4402EBC603D3E90023FDF7D5F873
:1033E00022462B46FDF7D1F8174A7A4402EBC60372
:1033F000D3E90023FDF7CCF8009A002AB8BF81F08A
:103400000041BDE8F88F0000000010440000F07F8C
:10341000182D4454FB21F93FFB21F9BF0000DC3F8C
:103420000000203E0000F33F0000F03F0000E63FB8
:10343000008003400000F83F0000F0BF0E45000090
:10344000CC4400006A440000324400002DE9F04DF5
:103450009446CCF1000423F000464CEA0404524F99
:1034600046EAD4749A46884621F00042BC4206D807
:10347000454240EA050442EAD474BC4204D9BDE89E
:10348000F04D6246FFF702BBAAF14055A5F17F65FA
:1034900055EA0C040BD0022404EAAA74434DDFF869
:1034A00010E144EAD87452EA000B04D00CE0BDE805
:1034B000F04DFFF7BBBE002C14BF012CBDE8F08D12
:1034C000022C30D0032C32D056EA0C0B0AD0BE426C
:1034D00020D1BA4209D126F0804622F080423346FC
:1034E000114617E000291ADB25E0DFF8C8B0FB44DD
:1034F000002C04BFDBE90001BDE8F08D012C02BF08
:10350000DBE9000181F00041BDE8F08D022C0AD01A
:10351000032C0CD0BA4212D1B8F1000F0BDA2348B9
:103520002549BDE8F08D28462449BDE8F08D2846A0
:103530007146BDE8F08D1D482149BDE8F08D921B14
:1035400012153C2AC4BF19481D490EDCBAF1000F00
:10355000BEBF12F13C0F0020014606DB6246FDF7BC
:103560008CF821F00041FFF761FE002C08BFBDE898
:10357000F08D012C04BF81F00041BDE8F08D114AAF
:10358000114B022C07D0FDF700F82A46BDE8F04D9C
:103590000A4BFCF7FABFFCF7F8FF2A46BDE8F04DEE
:1035A000064BFCF7F5BF00000000F07F182D4454D7
:1035B000FB2109C0C6430000FB21F9BFFB210940E4
:1035C000FB21F93F075C143326A6A13C08B560B186
:1035D00020208DF8000028208DF8010030208DF883
:1035E000020038208DF8030004E0A322042168467D
:1035F000FCF737FE6A46042140F69E2001F03AFEB1
:1036000001F0F8FA08BD00003EB5044602208DF82E
:103610000000CA208DF80100E3208DF80200092087
:103620008DF803006A460421682001F023FEA320E0
:103630008DF80000610609D5C0218DF80110C82160
:103640008DF80210C2218DF8031005E08DF80100FD
:103650008DF802008DF8030014F4C07F09D0C42156
:103660008DF80410CC218DF80510C6218DF80610B8
:1036700005E08DF804008DF805008DF806008DF842
:1036800008008DF807008DF809006A460A2140F607
:10369000A72001F0EFFDA0074FF0D80503D02020B0
:1036A0008DF8000001E08DF800506A46012140F6D7
:1036B000B62001F0DFFDA00601D5012000E00020CA
:1036C00000F08EF814F4C07F1ED0E0050AD5B220B9
:1036D0008DF800008B208DF80100B6208DF80200D7
:1036E0009B2009E0B0208DF8000080208DF80100BB
:1036F000B4208DF8020090208DF803006A46042162
:1037000040F6A22001F0B6FDE1074FF40B6022D095
:10371000F8218DF800106A46012101F0ABFDFA2175
:10372000072000F039FB072000F004FB012000F027
:1037300021FB642000F0C4FB4FF4FA7000F0D0FBD2
:10374000C821254800F0BEFA282000F0D3FA0A204C
:1037500000F0E0FA05E08DF800506A46012101F022
:1037600089FDA00703D5D9208DF8000001E08DF870
:1037700000506A46012140F23D7001F07BFD600778
:1037800001D5012000E0002000F048F8E00601D556
:10379000012000E00020FFF719FF104D44F0080061
:1037A000688101F027FA0020A873600601D5062081
:1037B000A87314F4C07F02D0A87B801DA87314F0F6
:1037C000140F02D0A87B1030A873A00702D0A87BEA
:1037D000001DA87300203EBD09E3CA02900200202C
:1037E0000EB54FF4976310B106A107C901E008A216
:1037F00007CA8DE807006A460921184601F03AFD1C
:103800000EBD0000B8AAB38DB4980D355D00000060
:10381000B8AAAAAAB088C3C5C700000008B560B19D
:10382000C0208DF80000C2208DF80100C4208DF862
:103830000200C6208DF8030004E08B2204216846B4
:10384000FCF70FFD6A46042140F6982001F012FDB6
:1038500001F0D0F908BD0000C8234FF4806202498E
:1038600040F6F63001F0A8B8D46B00082DE9FF4F00
:1038700089B01746DDE9165200244C4E8846814631
:103880002C80A246B07B694601F042F94FF0FF3B25
:1038900018B158460DB0BDE8F08F708910F0140FC4
:1038A0003CD0009909BA21F0FF039DF803100B43A7
:1038B0003B6001991B1409BA21F0FF029DF8071023
:1038C0005B430A437A6002999DF80B4009BA21F0E4
:1038D000FF012143B960039C091424BA24F0FF0CB2
:1038E0009DF80F4012144CEA040CC7F80CC04FEAC4
:1038F0002C47494302FB023207FB071111441024F5
:10390000A1F17061B1F1007F04D901F073F9A5F85C
:1039100000A0BEE7298841F48071298042066946EB
:1039200011D50A19A41D13885BBAA8F80030538872
:103930005BBAA8F80230928852BAA8F804202A8804
:1039400042F008022A8010F4C07F11D00A19A41D89
:1039500013885BBAA9F8003053885BBAA9F8023023
:10396000928852BAA9F804202A8842F070022A806C
:10397000800716D00C44E07800F0C00500F03F014D
:103980006078C00706D0C80801F007013268491CFA
:1039900002B190476078000703D5716809B1A809A2
:1039A00088470C9800F054FD002073E79002002037
:1039B0002DE9FF41044603A800F0B4FEBDF80C0059
:1039C000410CC3032F48028902F00300550754F845
:1039D000200000D54042C2F3C105960654F8255098
:1039E00000D56D42C2F38116D20554F8264000D5A9
:1039F0006442A0FB0367C21702FB037200FB0120B5
:103A0000820042EA9670A5FB0367EA1702FB037285
:103A100005FB0122950045EA9672A4FB0367E517B2
:103A200005FB037304FB01318B0043EA9671030E1F
:103A30008DF80030030C8DF80130030A8DF8023048
:103A40008DF80300100E8DF80400100C8DF80500A1
:103A5000100A8DF80600080E8DF80800080C8DF885
:103A60000900080A8DF80A008DF807208DF80B1060
:103A70006A460C214FF4257001F0FCFB04B0BDE850
:103A8000F08100009002002030B5044613A285B0FA
:103A900007CA8DE807004FF0FF35C82C16D8C8209C
:103AA000B0FBF4F1491E080A8DF80C008DF80D10DA
:103AB00003AA022140F2162001F0DCFB30B96A466D
:103AC0000C2140F6C12001F0D5FB10B1284605B00D
:103AD00030BD054884810020F9E70000FEF2ABC448
:103AE000AAF1DFDFBBAFDFDF90020020F8B530497D
:103AF000098901F0030250F822404A0700D56442C8
:103B0000C1F3C1028B0650F8222000D55242C1F306
:103B1000811350F82330C80500D55B42254984FB4A
:103B20000140850045EA947082FB0142A40F44EAFB
:103B3000820483FB0121950F45EA8105010E8DF872
:103B40000010010C8DF80110010A8DF802108DF89B
:103B500003006A4604214FF4747001F08BFB4FF0B0
:103B6000FF3688B9200E8DF80000200C8DF801007A
:103B7000200A8DF802008DF803406A4604214FF4B4
:103B8000757001F077FB08B13046F8BD280E8DF84E
:103B90000000280C8DF80100280A8DF802008DF82D
:103BA00003506A4604214FF4767001F063FBF8BDC0
:103BB0009002002009E3CA022DE9FF4104463CA01F
:103BC00004F00303006802903AA0006803903AA052
:103BD00006683AA0056802A8C15C8DF80010C4F31D
:103BE000C101425C8DF80120C4F38112805C8DF824
:103BF000020003A8C35C8DF80430415C8DF8051009
:103C0000805C8DF806006A46032140F2264001F0F0
:103C100031FB4FF0FF37E0BB01AA032140F22A40FD
:103C200001F028FBA8BBCDE9006560070BD59DF826
:103C3000000040F001008DF800009DF8040040F005
:103C400001008DF80400A0060BD59DF8010040F09E
:103C500001008DF801009DF8050040F001008DF88D
:103C60000500E0050BD59DF8020040F001008DF83D
:103C700002009DF8060040F001008DF806006A463B
:103C800003214FF4886001F0F5FA10B901AA03216D
:103C900000E004E040F2314001F0ECFA18B138469F
:103CA00004B0BDE8F081064804810020F8E7000078
:103CB0004CCD6C000CC92C003656760026466600AA
:103CC000900200204FF47A7290FBF2F008B548435E
:103CD000010E8DF80010010C8DF80110010A8DF80D
:103CE00002108DF803006A4604214FF4AE7001F013
:103CF000C1FA08BD0521B0FBF1F008B5010A8DF845
:103D000000108DF801006A4602214FF4AD7001F0F9
:103D1000B1FA08BD0521B0FBF1F008B5010A8DF834
:103D200000108DF801006A4602214FF4AC7001F0DA
:103D3000A1FA08BD08B500218DF80010C10702D016
:103D400030218DF80010810705D59DF8001041F055
:103D50000C018DF80010400705D59DF8000040F0DB
:103D600003008DF800006A4601214FF4A47001F0B1
:103D700081FA08BD08B560B1042800D90420401EAE
:103D80008DF800006A46012140F24F1001F072FAEE
:103D900008BD0120F3E700002DE9FC41054640077E
:103DA0004FF0FF367CD0B1F5C86F79D80846FCF7E4
:103DB000DCFC3E49FCF7FEFA074601A800F094FC43
:103DC0009DF80400022806D004280DD008282ED023
:103DD000102865D134E00E213846FCF729FBFCF7AA
:103DE000F3FC84B2324907E00D213846FCF720FB92
:103DF000FCF7EAFC2F4984B23846FCF7A9FAFCF735
:103E0000E3FC210A8DF8001080B28DF80140010A10
:103E10008DF802108DF80300E8076C4620D022468A
:103E200002214FF4EA7001F025FAC8BB11E00C2121
:103E30003846FCF7FDFAFCF7C7FC84B21E49DBE705
:103E40000B213846FCF7F4FAFCF7BEFC84B21B49A0
:103E5000D2E7A21C02214FF4927001F00BFAF8B9DC
:103E6000A8070DD56A4602214FF4EC7001F002FA62
:103E7000B0B9A21C02214FF4947001F0FBF978B99B
:103E8000680710D56A4602214FF4EE7001F0F2F98E
:103E900030B9A21C02214FF4967001F0EBF910B179
:103EA0003046BDE8FC810020FBE7000000004843ED
:103EB000000040460000C045000040450000C044EE
:103EC0000521B0FBF1F008B5010A8DF800108DF85E
:103ED00001006A4602214FF4EF7001F0CBF908BDF2
:103EE0000521B0FBF1F008B5010A8DF800108DF83E
:103EF00001006A4602214FF4ED7001F0BBF908BDE4
:103F000038B504468DF8000069460320ABBE204654
:103F100038BD00002DE9FE430646264801AB0422C9
:103F200040680D210078FEF7C5F910B10720BDE803
:103F3000FE839DF804101C2000EAD1029DF80710B2
:103F4000DFF87490C1F301131A438DF800209DF837
:103F50000520C1F3810300EAD2021A438DF8012043
:103F60009DF8062001F0030100EAD2000843002476
:103F7000124F8DF80200A0466D46285D10B146F83C
:103F800024900AE046F824800DE000BF56F8240093
:103F90003946FCF7DDF946F82400285D401E10F094
:103FA000FF002855F2D1641CE4B2032CE5D30020B5
:103FB000BDE70000BC0000207B14AE3E1D5A843FCC
:103FC0002DE9FE4F05460120C14E8DF800004FF04F
:103FD00000088DF8018030680C461746817C7068B7
:103FE0006B4602220078FEF7F2F94FF0FF3A002804
:103FF0007AD1C820FCF766FE8DF8008030686B46E9
:104000000122C17B70680078FEF7E1F90028EFD14A
:1040100030686B460122417970680078FEF7D7F965
:104020000028E5D130686B460122817C70680078F9
:10403000FEF7CDF90028DBD130686B460122C17D47
:1040400070680078FEF7C3F90028D1D130686B465C
:104050000122017970680078FEF7B9F90028C7D10C
:104060004FF00C098DF8009030686B460122017901
:1040700070680078FEF7ABF9002835D10F20FCF707
:1040800021FEB06A6B460122407A8DF8000030684C
:10409000817870680078FEF79AF9002824D1B06A18
:1040A0006B460122007A8DF8000030684178706814
:1040B0000078FEF78CF9002873D1B06A807A0FB1CE
:1040C00040F0E0008DF8000030686B4601228179F5
:1040D00070680078FEF77BF9002862D12FB1B06AD2
:1040E000C07A40F0E00001E04AE018208DF80000BE
:1040F00030686B460122C17970680078FEF767F975
:10410000F0BB17B1C820FCF7DDFD40208DF80000A2
:1041100030686B460122017970680078FEF757F924
:1041200070BB78208DF8000030686B460122417921
:1041300070680078FEF74BF910BB3220FCF7C2FD27
:104140008DF80080306847466B46417970680122DF
:104150000078FEF73CF998B931687068B046897A02
:1041600000786B460222FEF7A5F848B9BDF80000BA
:10417000AF6040BAB0FBF9F06F60C6B22F6000E0EC
:104180000FE0A76067602760002739E0D8F80010CB
:10419000D8F804006B46C97A00780C22FEF78AF83A
:1041A00010B15046BDE8FE8FBDF80000236840BA4C
:1041B00002B2BDF80200BDF804101A44226040BAF1
:1041C000626800B21044606049BAA06809B208444D
:1041D000A060BDF806002B6840BA02B2BDF8080026
:1041E0001A4440BA01B2BDF80A002A606A6840BAAF
:1041F00011446960A96800B208447F1CFFB2A8603E
:10420000B742C3D328688322C117090441EA104189
:1042100000040023FBF7D2FF32460023FBF7CEFF5A
:10422000286068688322C117090441EA104100042C
:104230000023FBF7C3FF32460023FBF7BFFF686094
:10424000A8688322C117090441EA10410004002331
:10425000FBF7B4FF32460023FBF7B0FFA8602068ED
:104260004FF40065C117090441EA104100042A46D1
:104270000023FBF7A3FF32460023FBF79FFF2060DC
:1042800060682A46C117090441EA1041000400236E
:10429000FBF794FF32460023FBF790FF6060A068B5
:1042A0002A46C117090441EA104100040023FBF724
:1042B00085FF32460023FBF781FFA060002802DD66
:1042C000A0F5803001E000F58030A060002069E7B3
:1042D000BC0000202DE9F84F81462E488846002575
:1042E00040686B46032200780D21FDF7E3FF10B113
:1042F0000720BDE8F88F9DF80000002400F01F00A3
:104300008DF800009DF801006FF00F0B00F01F000A
:104310008DF801009DF802006E4600F01F008DF838
:1043200002004FF0010A00BF59F8241058F8240089
:10433000081A00D54042FCF70FFA5946FCF778F806
:104340000746305DC0B1144802E01449FCF700F89C
:10435000315D491E11F0FF013155F6D10146384655
:10436000FCF728F84FF07E51FBF7ECFF0C4920F0EA
:104370000040884205DC07E00A483844B0F1D97FA4
:1043800002D90AFA04F00543641C032CCCDB28464E
:10439000AFE70000BC0000200000C84154E3853FA7
:1043A000295C0F3E0000E0BE00B5024600F00DF8AB
:1043B0000346D01C00F009F843EAC003901D00F04A
:1043C00004F843EA801080B200BD90F90010002983
:1043D00002DD4FF00000704702DA4FF00400704732
:1043E00090F90110002902DD4FF00100704702DA58
:1043F0004FF00500704790F90200002802DD4FF0F1
:104400000200704702DA4FF0060070474FF00700D5
:1044100070470000FCF768FDFEF73CF9FEF718F85E
:10442000FEF76CF8FEF7B6F8FEF7EAF80748FDF776
:1044300013F9FDF7E5FE00F061FFFDF7F1FF00F075
:1044400079FF3220FCF73EFCFBE7000074010020FE
:10445000704700002DE9F041124C20F001010025C9
:1044600094F8240010B10020BDE8F081A07A4FF04C
:10447000FF3668B10840277C2074884200D035465A
:1044800041B1012001F028FC00F0B4FB38B12774E1
:104490003046E9E7207D00B1012001F01DFC2846EF
:1044A000E2E70000BC0000202DE9F74F8EB00CA918
:1044B00002A8CDE900010BAB03AA09A907A8FFF7E1
:1044C000D5F918B1012011B0BDE8F08FBDF8080092
:1044D000C0057DD50398FCF73FF96FF01D04214618
:1044E000FBF7A6FF82460498FCF736F92146FBF756
:1044F0009FFF81460598FCF72FF92146FBF798FFAF
:1045000080460698FCF728F92146FBF791FF0546FF
:1045100001215046FBF78CFF06464146FBF718FF8A
:1045200004464FF040414846FBF712FF0746294634
:10453000FBF70EFF2146FBF7B3FEFCF759F9FEF738
:104540003DFD4FF0663B5A463D4BFCF724F8FCF727
:1045500062F90E99086001214046FBF769FF414668
:104560000090FBF7F5FE044638464946FBF7F0FE9F
:104570002146FBF7E7FE4FF07E51FBF791FEFCF77B
:1045800037F907460C4630464946FBF7E1FE06463A
:1045900029460098FBF7DCFE3146FBF781FEFCF76D
:1045A00027F93A462346FEF751FF5A46244BFBF7BC
:1045B000F2FFFCF730F90F99086029460846FBF72F
:1045C000C7FE074641460846FBF7C2FE064600E026
:1045D00034E049460846FBF7BBFE04465146084610
:1045E000FBF7B6FE2146FBF75BFE3146FBF7AAFE62
:1045F0003946FBF7A7FEFCF7FBF806460C462946B2
:104600005046FBF7A5FE054641464846FBF7A0FE8F
:104610002946FBF745FE0121FBF70AFFFCF7E8F806
:1046200032462346FEF712FF5A46054BFBF7B3FF0F
:10463000FCF7F1F810990860002044E7022042E7F7
:1046400066A64C4010B5FDF7EFFA00F0F1F808B19E
:104650000A2010BD782000F0B1FD10F0FF0F01D04E
:10466000012010BD7820FFF7F5FE10F0FF0F01D0FC
:10467000022010BD642000F061FD10F0FF0F01D09A
:10468000032010BDFFF7E8F810F0FF0F01D0042061
:1046900010BD1448FFF788FEFFF78EFA10F0FF0FE9
:1046A00001D0052010BD40F27310FEF7ADFF10F0F1
:1046B000FF0F01D0062010BD6420FFF7E5F910F0D0
:1046C000FF0F01D0072010BD01F0C6FA08B1082085
:1046D00010BD012000F058FC10F0FF00F8D00920B8
:1046E00010BD0000E80000200D494A7A42B1012ABD
:1046F00008D0022A0FD0032A0FD04FF0FF307047A6
:10470000022200E004220270C97C11B11106C90D19
:104710000170002070470822F5E71022F3E700003F
:10472000BC0000200F494A7A42B1012A09D0022A6E
:1047300011D0032A12D04FF0FF3070474FF480425F
:1047400001E041F69C720280C97C11B1C2F34E01B6
:104750000180002070474FF48052F4E74FF400626C
:10476000F1E70000BC0000200B49097A39B10129AA
:1047700007D002290AD003290BD0002103E0FA2137
:1047800001E04FF4FA710180002070474FF47A7114
:10479000F9E74FF4FA61F6E7BC0000200A49097A0C
:1047A00041B1012908D002290AD003290AD04FF0CB
:1047B000FF307047054900E005490160002070475F
:1047C0000449FAE70449F8E7BC000020000003436D
:1047D0000000834233330342333383410C49C97AA7
:1047E000072913D2DFE801F01204060A0C0E1000AC
:1047F000BC2100E062210180002070472A21FAE7F5
:104800001421F8E70A21F6E70521F4E70021F2E791
:10481000BC000020054991F8242012B14FF0FF3070
:104820007047C9890180002070470000BC0000204B
:104830002DE9FC414C4C80208DF8000020686B462F
:104840000122817C60680078FDF7C1FD4FF0FF37E1
:10485000002832D16420FCF735FA00258DF800508D
:1048600020686B460122817C60680078FDF7AFFD0F
:10487000002870D120686B460622817D6068007830
:10488000FDF718FD002866D19DF805009DF803107E
:10489000C007400F01F0010140EA41019DF801000D
:1048A0004FF0010600F00100014309D0012905D0B5
:1048B000022915D02DA0FEF75DF84CE0E67410E05B
:1048C00020686B460122C17860680078FDF7F2FC31
:1048D00040BB9DF8000010F00F0020D0042822D02B
:1048E000E574FF2004F80A0F4FF6FF7104F8020C7C
:1048F00004F8010C6070A180A0712072A670267669
:104900006576E572A572E56025616561A576E57657
:10491000A5834FF4FA6000F073FB18B907E01D4857
:10492000FEF728F817E01CA0FEF724F8C6E70220DF
:1049300000F088FA78B92A2000F0CAFB58B9322072
:1049400000F0FCFB38B90020FFF784FD18B9002007
:1049500000F0ACFA10B13846BDE8FC81002000F050
:104960002DFC0020F8E70000BC000020556E737598
:1049700070706F7274656420736F667477617265AE
:104980002070726F64756374207265762025642EC2
:104990000A000000D878000848616C662073656ED4
:1049A0007369746976697479207061727420666FB6
:1049B000756E642E0A0000002DE9FF4FDFF8948029
:1049C000064685B098F8250015460F464FF0FF398A
:1049D000B0BBAFB3002420E0301B102800DD102056
:1049E00080B283463A1901469246204600F042FCC6
:1049F00030BB6A465946204600F0D2F800BB50460C
:104A00005A466946FBF73FFC20B16FF0010009B040
:104A1000BDE8F08F04EB0B0084B2B442DCD3280A6B
:104A20008DF810008DF81150D8F80000444604AB02
:104A3000817ED8F8040002220078FDF7C8FC08B196
:104A40004846E4E7012084F825000898E084002027
:104A5000DDE70000BC0000202DE9F84305464FF0DB
:104A6000FF39282844D80727284C00267DB101208B
:104A700000F0FCFA20208DF800004FF00108012D15
:104A800017D0052D18D88DF8018005201FE00020D3
:104A900000F0ECFA8DF800608DF8017020686B462C
:104AA0000222817C60680078FDF791FC00BB2675CE
:104AB00029E08DF80160E8E7142D04D802208DF874
:104AC00001000A2003E003208DF80100142000F00B
:104AD000FFFA9DF801006B4607EB80108DF801008E
:104AE00020680222817C60680078FDF770FC10B1BC
:104AF0004846BDE8F8830820A072267384F8148025
:104B00000020FFF7A7FC0020F3E70000BC00002016
:104B10002DE9F843214C0646174694F824008946AF
:104B20004FF0FF3890B3A07A80B320686B46022222
:104B3000817A60680078FDF7BDFB38BBBDF80000E6
:104B400045BAB54202D2002038701FE06068418843
:104B5000B5EB510F11D9216800786B46497C0122D1
:104B6000FDF7A8FB90B99DF80000C00605D500F040
:104B700041F86FF00100BDE8F8832068F2B24B46BF
:104B8000C17A60680078FDF795FB08B14046F2E70E
:104B9000B5FBF6F0401E38700020ECE7BC000020AA
:104BA000F8B516000D464FF0FF371FD0104CA17A14
:104BB000E1B1010A8DF80010C0B28DF80100411971
:104BC00060684289914211D8216800786B46097E5D
:104BD0000222FDF7FCFB48B92068EAB23346417D6A
:104BE00060680078FDF766FB002800D03846F8BD05
:104BF000BC000020F8B5564C4FF0FF36A07A0028D4
:104C00007DD000258DF8005020686B460122C17BC5
:104C100060680078FDF7DBFB002870D120686B46E8
:104C20000122417960680078FDF7D1FB002866D148
:104C300020686B460122017960680078FDF7C7FBA8
:104C400000285CD194F82400E0B30C208DF800001B
:104C500020686B460122017960680078FDF7B7FB98
:104C6000002872D13220FCF72DF8C0208DF800000A
:104C7000A07AC00702D0E0208DF8000020686B46C3
:104C80000122017960680078FDF7A1FB00285CD162
:104C9000607C18B102208DF8000001E08DF8005012
:104CA00020686B460122C17B60680078FDF78FFBAE
:104CB00028BB8DF8005020686B460122417960685E
:104CC00000783EE0FFE704208DF8000020686B4686
:104CD0000122017960680078FDF779FB78B9A07C42
:104CE00090B9A07AC0070FD05FF060008DF8000087
:104CF00020686B46012201796068007800E024E0BA
:104D0000FDF765FB08BB01E04020EFE73220FBF731
:104D1000D9FF607C18B101208DF8000001E08DF80A
:104D2000005020686B460122C17B60680078FDF767
:104D30004EFB50B92068064B012241796068103360
:104D40000078FDF744FB002800D03046F8BD000095
:104D5000BC0000202DE9F047394C82468AB094F817
:104D600024000F4620B1002000F00EF9012600E0DB
:104D7000002607A8FFF7F8FC06A8FFF7B5FC09A86E
:104D8000FFF72CFD08A8FFF745FD94F80A9094F86A
:104D900010800025002239465046FFF711F910B166
:104DA0006D1C022DF6DB022D1AD00025012203A96D
:104DB0006846FFF705F910B16D1C022DF6DB022DD8
:104DC0000ED003A93846FEF7B9F8C7B26946504677
:104DD000FFF780FA10F0FF0F4FF0000502D002E05D
:104DE000002503E001250FB945F00205FF202072E0
:104DF0006072E0724FF6FF71E181A07220740120B1
:104E00002073BDF81C0000F0FBF89DF8180000F0BE
:104E100019F8BDF8240000F05BF9BDF8200000F09F
:104E20008DF9484600F0CAF94046FFF713FB16B16A
:104E3000012000F0A9F80AB02846BDE8F08700007C
:104E4000BC00002038B5184C4FF0FF35A17A19B3DB
:104E5000022806D0042806D008280ED010281BD11E
:104E60000DE0002000E008208DF80000607A9DF839
:104E70000010B0EBD10F04D005E01020F4E71820AB
:104E8000F2E7002038BD20686B460122C1796068D6
:104E90000078FDF79CFA08B1284638BD9DF800005F
:104EA000C0086072EDE70000BC000020F8B5354C8A
:104EB0000546A07CA84201D10020F8BD31484FF042
:104EC000FF366B46D0E900104FF0010209790078F7
:104ED00035B3FDF7EFF970BB9DF800006B4620F08D
:104EE00020008DF8000020680122017960680078B8
:104EF000FDF76DFAF8B90320FBF7E4FE02208DF808
:104F0000000094F8220078B382202BE020686B46E2
:104F10000122017D60680078FDF759FA58B92EE04A
:104F2000FDF7C8F938B9A07AC0079DF8000003D092
:104F300040F0200002E00CE020F020008DF800009E
:104F400020686B460122017960680078FDF73FFA1E
:104F500008B13046F8BD0320FBF7B4FE94F82200F8
:104F600000B180208DF8000094F823000028CDD0F7
:104F70009DF8000040F030008DF80000C6E7A574F1
:104F80009AE70000BC00002038B51C4C94F82410AF
:104F900081421DD0002500B394F82500D0B1002037
:104FA00000F09AFE0020FFF781FFE08C00F0C6F8C9
:104FB0008DF8005060686B46012200782321FDF7D0
:104FC00006FA012084F8240000F086FEFFF712FEA6
:104FD000002038BD4FF0FF3038BD002000F07CFECF
:104FE000207C8DF8000060686B4601220078232148
:104FF000FDF7EDF984F82450E8E70000BC0000203C
:1050000038B5194C4FF0FF35A17A31B3FA2809D0E1
:10501000B0F5FA7F08D0B0F57A7F0FD0B0F5FA6F0F
:105020001BD10DE0002000E008208DF80000207A60
:105030009DF80010B0EBD10F04D005E01020F4E78C
:105040001820F2E7002038BD20686B4601228179E4
:1050500060680078FDF7BBF908B1284638BD9DF8B7
:105060000000C0082072EDE7BC00002038B5174CE6
:10507000054694F82300A84201D1002038BD0DB1A7
:10508000302000E000208DF80000A07C28B19DF8C1
:10509000000040F002008DF8000094F8220028B1D2
:1050A0009DF8000040F080008DF8000020686B46FD
:1050B0000122017D60680078FDF789F910B14FF099
:1050C000FF3038BD84F82350D7E70000BC00002033
:1050D00038B5194C4FF0FF35A17A31B3BC2801D354
:1050E000012010E0622801D302200CE02A2801D31D
:1050F000032008E0142801D3042004E00A2801D387
:10510000052000E006208DF80000E07A9DF80010F0
:10511000884201D1002038BD20686B460122817889
:1051200060680078FDF753F908B1284638BD9DF84E
:105130000000E072EEE70000BC000020F8B51E4D54
:1051400004464FF0FF37A87A48B395F8240030BBE7
:10515000287D4FF47A7648B164B1282C03D8E0B2A8
:10516000FFF77AFC26E00020FFF776FC042C05D23E
:10517000042406E00020FFF76FFCF9E7B44200D9F1
:105180003446B6FBF4F0401E8DF8000028686B46EC
:105190000122417868680078FDF719F908B13846AE
:1051A000F8BD9DF80000401CB6FBF0F0E881400817
:1051B000FFF78EFF0020F8BDBC000020F8B50546C3
:1051C00010F0700F4FF0000601D0012004E015B17F
:1051D0008DF8006002E040208DF80000244C6B4602
:1051E00001222068817C60680078FDF7F0F84FF0BC
:1051F000FF3760BB9DF8000020F0400020738DF861
:105200000060680602D404208DF80000A80605D4CA
:105210009DF8000040F002008DF80000E80605D47B
:105220009DF8000040F001008DF80000280705D42B
:105230009DF8000040F038008DF8000020686B46B3
:105240000122C17C60680078FDF7C1F810B1A67238
:105250003846F8BD25B1082D02D00020FFF706FF23
:10526000A57226753220FBF72DFD0020F8BD000049
:10527000BC000020F8B516000D464FF0FF371FD0D8
:10528000104CA17AE1B1010A8DF80010C0B28DF87E
:105290000100411960684289914211D82168007863
:1052A0006B46097E0222FDF792F848B92068EAB2FF
:1052B0003346417D60680078FDF789F8002800D00A
:1052C0003846F8BDBC00002010B5EFF3058149B9A0
:1052D000EFF3108131B908490968022905D1EFF3CC
:1052E000118111B16FF0050403E0002408B100F052
:1052F00075FE204610BD000044010020EFF305803C
:1053000058B9EFF3108040B909490868022801D064
:1053100030B109E0EFF3118030B16FF00500704754
:1053200001200860002070474FF0FF3070470000F8
:105330004401002010B5EFF3058060B9EFF3108051
:1053400048B90B490868022802D0012806D00BE0B2
:10535000EFF3118040B16FF0050010BD022008602E
:1053600000F0A4FE002010BD4FF0FF3010BD000083
:1053700044010020F0B585B00B464FF00004EFF378
:1053800005810394A1BBEFF3108189BB2149096812
:10539000022902D1EFF3118151BB48B380261821B5
:1053A0008DF8104004AD42B3176807B13D469769C8
:1053B0001FB139467F1E382F02D21779FF0702D05E
:1053C000002005B0F0BD576907B1BE08D2F808C08B
:1053D000BCF1000F0DD0D4685C2C18D312693AB11F
:1053E00037B18DE806103246294601F0BAF903902C
:1053F0000DE0D7685FB912694AB903AACDE9001276
:10540000B2B2294601F080F9012800D00394039834
:10541000D7E70000440100202DE9F041134C0F466E
:10542000054666692068001D00F0A8FC681C07D1CD
:1054300037B12168BDE8F0410D48091D00F0EEBC10
:1054400020683544B5424560216805D2A068BDE8B2
:10545000F041091D00F0CABC6068091D00F0C6FCDF
:10546000206B854200D22563BDE8F081F400002066
:10547000900700202DE9F041054600F0DBFC2D4CA3
:105480002069401C206120682B4F10B1E06930B3C7
:105490002BE025602069012827D1002606EB860035
:1054A00007EB800000F094FC761C382EF6D32348DE
:1054B00000F08EFC2148143000F08AFC1F48283090
:1054C00000F086FC1D483C3000F082FC1B48503048
:1054D00000F07EFC194860601430A06005E0206890
:1054E000E96AC06A884200D82560E06A401CE06230
:1054F0006864E86AA169884200D9A06100EB800075
:1055000007EB8000291D00F089FC00F0B3FCE06986
:1055100000280CD02068E96AC06A884207D208498E
:105520004FF080500860BFF34F8FBFF36F8FBDE81F
:10553000F0810000F4000020E0020020400700207D
:1055400004ED00E038B500F075FC104CA068C8B957
:105550000F4800F03DFC0E48143000F039FC0C48B8
:105560002060143060600A4B00202833009003F163
:10557000500210210A2000F06BFEA06010B105A1BE
:1055800000F0F6FCBDE8384000F074BC30010020AB
:10559000A4070020546D72510000000030B4026C6A
:1055A0000B46002A0BD0C1681144C1604468A14277
:1055B00001D30168C16030BC1846FAF740BE30BC68
:1055C00070472DE9F041856B174604460026026CB2
:1055D00082B1C7B1E068FAF732FEE168206C091ABF
:1055E000E1602268914202D26168081AE060022FED
:1055F00016D017E02068A8B9606801F055F9064692
:10560000002060600EE0A068FAF719FE216CA06827
:105610000844A0606168884204D32068A06001E06B
:1056200005B16D1E6D1CA5633046BDE8F08110B557
:10563000044690F8590058B101280CD002280FD028
:10564000502080F31188BFF34F8FBFF36F8FFEE7B9
:10565000206B00F023FC2046BDE8104000F01EBC8B
:1056600010BD000010484FF44061420706D0C01D35
:105670000D4920F00700411AC1F540610B4A002393
:105680000144C2E900030839103A21F00701116012
:105690004B600B600B1AC0E9001393604FF00040A1
:1056A0005360D06070470000740F00205801002044
:1056B000144E154CA6F29C474FF08058DFF84C90E2
:1056C00012E000BF00F0B6FBF068C568281D00F0CE
:1056D00055FB2069401E2061E068401EE06000F03C
:1056E000C9FB2846FFF7A3FFE0680028EAD1386825
:1056F0000128F9D9C9F80080BFF34F8FBFF36F8F2E
:10570000F2E700007C070020F400002004ED00E038
:1057100070B51D46049C51B1C4F80020C4E90F01C6
:105720000121204600F0C8FD84F84C5070BD246073
:10573000F4E72DE9F0470E46DDE909841746824675
:1057400091009946089DA522206BFAF78AFD6FF01B
:105750000301206B01EB8701084420F0070778075D
:1057600007D0502080F31188BFF34F8FBFF36F8FA6
:10577000FEE72218315C82F83410315C11B1401C14
:105780001028F6D3002684F84360382D00D337253F
:10579000E562C4E91356201D00F025FB04F1180052
:1057A00000F021FB2461C5F138006462A0616665E8
:1057B00084F858604A465146384600F03BFA20606B
:1057C000B8F1000F01D0C8F80040BDE8F087000034
:1057D00030B5114900E011460A688242FBD34B689C
:1057E0005C18844203D14068184448600846436806
:1057F0001C18944209D1084C103C2468A24209D0DC
:1058000052681A4442600A6812680260814200D0FD
:10581000086030BD0460F9E75801002070B500242D
:1058200041600B4D0061914206D8D11A82699142C4
:1058300006D2011D686807E09A4203D2994201D35B
:10584000012403E0011D286800F0D0FA204670BD55
:105850003001002010B5044600F0ECFAA06B28B12E
:105860005FF0000400F006FB204610BD0124F9E7BC
:1058700030B589B0304D55E00498002806DADDE9EE
:105880000601059A9047049800284BDB069C606946
:1058900010B1201D00F072FA02A800F0B9F802461B
:1058A00004980A283ED2DFE800F00505053D2637BA
:1058B00005053D260598A169034601442046FFF7EA
:1058C000ADFF00B3616A20468847E069012829D10D
:1058D000002000900598A16900234218194620462F
:1058E00001F0ECF878B9502080F31188BFF34F8FA6
:1058F000BFF36F8FFEE70598A06128B181181346AA
:105900002046FFF78BFF0DE0502080F31188BFF396
:105910004F8FBFF36F8FFEE794F82C0010B920462D
:1059200000F0BCFA002204A9A86800F017FE0028C5
:10593000A2D109B030BD0000300100202DE9FC41AA
:105940000F46054600F0F6FB01A800F061F804469A
:10595000019818B101F020F8BDE8FC81224EAFB1EA
:1059600070680068A8B30027291B3A46B06800F0A9
:1059700013FB01F011F80028EED11C494FF08050C4
:105980000860BFF34F8FBFF36F8FE5E7A542EBD8F9
:1059900001F002F830682746C068C468201D00F096
:1059A000EDF9E069012810D1A0692B4641193A466A
:1059B0002046FFF733FF40B1002003460146009028
:1059C0002A46204601F07AF820B1616A20468847CD
:1059D000C2E707E0502080F31188BFF34F8FBFF379
:1059E0006F8FFEE70127BFE73001002004ED00E0E4
:1059F00006484168096829B14168C968C9684968A9
:105A0000016370474FF0FF31FAE70000F400002017
:105A100070B5054600F0DEFE064E0446306984424D
:105A200003D200F009F8012000E0002028602046A1
:105A3000346170BD30010020F8B5194D1FE0C06819
:105A4000C4680668201D00F099F9616A20468847FD
:105A5000E069012813D1A0693044B04206D924611D
:105A60006060211D286800F0C1F908E000200346AD
:105A7000014600903246204601F020F838B12868EF
:105A800001680029DBD16968C5E90010F8BD502024
:105A900080F31188BFF34F8FBFF36F8FFEE70000D5
:105AA0003001002008484068401C4FF0500080F34F
:105AB000118804D0BFF34F8FBFF36F8FFEE7BFF3A2
:105AC0004F8FBFF36F8FFEE760010020074C206807
:105AD000016841B1C0680021D0F80000FFF72EFF37
